:060000000A128A11122809
:10000800FE00030E83120313D8000408D9000A085F
:10001800DA007F08DB000A128A15EB280A168A1113
:10002800782983160313DB00C63084009030C200A1
:100038000408C3001130C400420884008317000874
:10004800C500C20A43088400831345088000C30A18
:10005800C40B2028012B0A168A11D7200A128A11EC
:1000680083160317430883160313C2004207C43ECE
:10007800840083170008A400840A0008A5000A1257
:100088008A1196270A128A111D2B8B161D2B8B1687
:100098001D2B0A168A11D7200A128A1108300A164F
:1000A8008A112C210A128A1183160313C2004208EE
:1000B800D700D708031D612862286C28D330A40014
:1000C8008630A5000A128A1196270A128A111D2B5A
:1000D80000300A168A112C210A128A11831603137A
:1000E800C2004208D8000330C2004208A0005808E5
:1000F8000A168A11F2200A128A11023E2E3E840044
:1001080086300318013E83120313FF000A128A1176
:1001180000260A128A1183160313C3004308DC0061
:100128005C08C2004208A0006F080A168A11F22073
:100138000A128A1183160313C30043070E3EC40034
:100148004408DD00E70143295D080A168A11532295
:100158000A128A11831603132308DA01DA07220820
:10016800D901D9070A30A0000030A1005A08A3011C
:10017800A3075908A201A2070A168A116B250A12B9
:100188008A11831603132108E301E3072008E2011B
:10019800E2070A30A8000030A9005A08AB01AB07F3
:1001A8005908AA01AA070A168A118C240A128A1168
:1001B800831603132908E501E5072808E401E40785
:1001C8003D30AE008730AF006708013EB000003018
:1001D80003180130B1006308B301B3076208B20124
:1001E800B2076508B501B5076408B401B407C6309D
:1001F8000A128A15B4260A128A11031483160313E5
:10020800670D443E840086300318013E83120313B1
:10021800FF000A128A1100260A128A118316031394
:10022800C2004208A2006708C3004307443E840096
:1002380086300318013E83120313FF000A128A1145
:1002480000260A128A110A168A11F4210A128A1142
:10025800C63083160313A4000030A5000A128A11C1
:1002680096270A128A11831603135D08023EC200FC
:100278004208DD000130C2004208E70743295C0854
:100288006702031C48294929A8281D2B1D2B1D2B53
:100298000A168A11D7200A128A1106300A168A11FC
:1002A80053220A128A11831603132308DF01DF077A
:1002B8002208DE01DE0704300A168A1153220A12C8
:1002C8008A11831603132308E101E1072208E001DC
:1002D800E0075F085E04031D722973298829FF302F
:1002E8006106031D7929FF306006031D7C297D29DD
:1002F8001D2BD330A4008630A5000A128A11962738
:100308000A128A111D2B1D2B0A3083160313A00015
:100318000030A1005F08A301A3075E08A201A2079D
:100328000A168A116B250A128A11831603132108EB
:10033800E301E3072008E201E2070A30A8000030E1
:10034800A9005F08AB01AB075E08AA01AA070A1655
:100358008A118C240A128A11831603132908E501CD
:10036800E5072808E401E4072030AE008730AF0035
:100378006308B101B1076208B001B0076508B301AD
:10038800B3076408B201B207C6300A128A15B42648
:100398000A128A11C63083160313A4000030A50080
:1003A8000A128A1196270A128A1183160313A201C8
:1003B80002300A168A11F4210A128A110A308316A9
:1003C8000313A0000030A1006108A301A30760087F
:1003D800A201A2070A168A116B250A128A1183162E
:1003E80003132108E301E3072008E201E2070A30CA
:1003F800A8000030A9006108AB01AB076008AA019A
:10040800AA070A168A118C240A128A118316031362
:100418002908E501E5072808E401E4071630AE00DD
:100428008730AF006308B101B1076208B001B007B7
:100438006508B301B3076408B201B207C6300A12EF
:100448008A15B4260A128A11C63083160313A4002B
:100458000030A5000A128A1196270A128A111D2B4C
:100468001D2B83160313A00108300A168A11532383
:100478000A128A1183160313A00100300A168A1182
:1004880053230A128A11003083160313A300003085
:10049800A40002300A168A11BD200A128A11FF3000
:1004A80083160313A300FF30A40004300A168A1130
:1004B800BD200A128A11003083160313A3000030EE
:1004C800A40006300A168A11BD200A128A11831662
:1004D8000313E601C8306602031C732A742A762ABD
:1004E8008B2A8B2AA00166080E3E0A168A1153230E
:1004F8000A128A11013083160313C2004208E60764
:10050800C8306602031C892A8A2A762A8B2A0A1688
:100518008A11D7200A128A11DF3083160313A40028
:100528008630A5000A128A1196270A128A111D2BF5
:100538000A168A11D7200A128A118316031741084E
:1005480083160313C20001300310C20DFF3E031DC2
:10055800A82A0310420D123E840086300318013E7B
:1005680083120313FF000A128A1100260A128A1145
:1005780083160313A400831203130A128A11002698
:100588000A128A1183160313A5000A128A119627E4
:100598000A128A111D2B0A168A11D7200A128A11EB
:1005A800033083160313C2004208A0006E080A161F
:1005B8008A11F2200A128A112E3E8400863003180E
:1005C800013E83120313FF000A128A1100260A1241
:1005D8008A1183160313A400831203130A128A11C3
:1005E80000260A128A1183160313A5000A128A111B
:1005F80096270A128A111D2B1D2B831603135B08DD
:10060800013A03192F28033A03194928013A031913
:100618004B28073A03194D28013A03194C29033A84
:100628000319352A013A03199C2A0F3A0319CF2ACC
:100638001D2B831603135B08C200420883120313A1
:10064800ED00080083160317D600402D4308031D4C
:100658002E2B4B2D0130C30201300A128A111520AE
:100668000A128A114B2D4B2D0630831603174302AD
:1006780003183F2B402B4B2D013083160313E80042
:10068800680883160317C30701300A128A11152058
:100698000A128A114B2D4B2D252D0A168A11D720A7
:1006A8000A128A1100300A168A112C210A128A119C
:1006B80083160313E800680883160317D70003306E
:1006C80083160313E8006808A00083160317570869
:1006D8000A168A11F2200A128A11023E2E3E84005E
:1006E80086300318013E83120313FF000A128A1191
:1006F80000260A128A1183160313E9006908831673
:100708000317D800DA01BE2B5A080A128A15FD22EF
:100718000A128A1183160313210883160317DD01B1
:10072800DD0783160313200883160317DC01DC0793
:100738005D0883160313C301C307831603175C08F8
:1007480083160313C201C207831603175A088316B8
:100758000313E8006808C4000A128A114C250A121B
:100768008A11013083160313E800680883160317FB
:10077800DA07BE2B58085A02031CC32BC42B882B3C
:10078800C52B02300A128A1115200A128A114B2D24
:100798000A168A11D7200A128A1108300A168A11F5
:1007A8002C210A128A1183160313E800680883169D
:1007B8000317D90006300A168A1153220A128A1121
:1007C80083160313230883160317D301D30783164D
:1007D8000313220883160317D201D20704300A161E
:1007E8008A1153220A128A118316031323088316C7
:1007F8000317D501D5078316031322088316031799
:10080800D401D407DB01D42C59085B0783160313E2
:10081800E800E901E90D6908803AFF0080307F02AD
:10082800031D182C64306802031C1B2C1C2C2F2C55
:100838008B120A168A11D7200A128A11B73083162A
:100848000313A4008630A5000A128A1196270A12FB
:100858008A11DB2CCB2C831603175B080A128A1526
:10086800FD220A128A11831603132108831603171F
:10087800DD01DD0783160313200883160317DC0147
:10088800DC0755085D02031D4B2C54085C02031855
:100898004E2C4F2C622C5D0883160313A401A40769
:1008A800831603175C0883160313A301A3070430F8
:1008B8000A168A11BD200A128A11622C83160317A0
:1008C8005D085302031D6A2C5C08520203186D2C44
:1008D8006E2C802C5D0883160313A401A4078316CD
:1008E80003175C0883160313A301A30706300A162F
:1008F8008A11BD200A128A11831603175D08831610
:100908000313A401A407831603175C0883160313B3
:10091800A301A30783160317590883160313E800D6
:1009280068070E3E0A168A11BD200A128A11013084
:1009380083160313E800680883160317D9075908B4
:1009480083160313E8006808A00008300A168A1105
:1009580053230A128A11831603175D08831603139B
:10096800C301C307831603175C0883160313C20168
:10097800C207831603175B0883160313E800680889
:10098800C4000A128A114C250A128A11CB2C013094
:1009980083160313E800680883160317DB07D42CB3
:1009A80058085B02031CD92CDA2C082CDB2C0330EA
:1009B8000A128A1115200A128A114B2D04300A12C4
:1009C8008A1115200A128A114B2D05300A128A1134
:1009D80015200A128A114B2D06300A128A11152089
:1009E8000A128A114B2D02300A168A1153220A1252
:1009F8008A1183160313230883160317C201C2073B
:100A080083160313220883160317C101C107073091
:100A18000A128A1115200A128A114B2D00300A1663
:100A28008A112C210A128A1183160313E800680818
:100A3800EE0008300A128A1115200A128A114B2D6D
:100A48004B2D831603174308003A0319512B013A1B
:100A58000319CC2B033A0319E22C013A0319E92CA8
:100A6800073A0319F02C013A0319F72C033A031932
:100A7800122D4B2D4B2D4B2D5608013A0319252DC0
:100A8800023A03192A2B073A0319382B4B2D080071
:100A9800C9308400603083160313C5000408C600FB
:100AA8000930C7004508840083130008C800C50A38
:100AB8004608840048088000C60AC70B562D43081C
:100AC800AA01AA074208A901A9070A30AB00003009
:100AD800AC000A168A11CA230A128A118316031354
:100AE8002C08D5002B08D4002A08D3002908D200E6
:100AF8003D30AE008730AF000330C5004508A00088
:100B080044080A168A11F2200A128A11023E2E3E61
:100B1800840086300318013E83120313FF000A1273
:100B28008A1100260A128A1183160313B000B10134
:100B3800B01BB1035508B301B3075408B201B2079B
:100B48005308B501B5075208B401B407C9300A12F1
:100B58008A15B4260A128A11031483160313440D46
:100B6800443E840086300318013E83120313FF00BD
:100B78000A128A1100260A128A1183160313C50065
:100B88004508A2004408C6004607443E8400863053
:100B98000318013E83120313FF000A128A1100266C
:100BA8000A128A110A168A11F4210A128A11C93006
:100BB80083160313A4000030A5000A128A11962791
:100BC8000A128A110800FF308316031385001F30AC
:100BD800831603178800831603139F121F168312A8
:100BE80003131F083F3940389F00831603139F17CC
:100BF800831203131F140800FF1B0A2E83137F1888
:100C080083170008840A0319FF0A08007F087F3940
:100C18008A000408840A0319FF0A8200883487348A
:100C2800123400346C348734B43400347334873469
:100C38001C3402348E348734383404347A3487349C
:100C480030342A348134873490347E3465348734A0
:100C58002034FD34463487340134EA34863402348F
:100C6800F5348634033400348734043401340034D2
:100C78000A34003464340034E8340334103427343C
:100C880001340034013408340234003402340834A6
:100C980000340134023404347A34013400348034AA
:100CA8003F34723431343F34FE3475343E34583472
:100CB80063343D3495341D343C34C534AE343A3451
:100CC8007934213439349434803437349334A73424
:100CD8003534563415343434003400340034003498
:100CE80080343F34F034FF34BE34E234A9343E3427
:100CF80083347634BE34AE342B343E343C34C3347F
:100D0800BD34D23413343D347834D334BB344D3409
:100D18006F346E34693474346F34723461342F3400
:100D28004734723461347634613400345134753464
:100D380061346E3474342034533465346E3473340F
:100D48006F347234653473340034543465346D341C
:100D580070346F34203441346D346F3473347434E8
:100D68007234613400344D3465346D346F34723408
:100D78006934613420344334683465346934613407
:100D8800003449346E346934633469346F34203440
:100D9800763431342E34353430342D3400344E34F6
:100DA80065346E34683475346D34203444346134B9
:100DB80064346F3400345434753464346F342034FC
:100DC8004C3469346D3470346F3400343234203428
:100DD800733465346E3473346F34723465347334F9
:100DE800003433342034733465346E3473346F34E0
:100DF80072346534733400343434203473346534D5
:100E08006E3473346F34723465347334003431346F
:100E180032342F34303432342F34323430343134A5
:100E2800363400344D3469346E343D3425346434FA
:100E38002E342534643400344D34613478343D34F0
:100E4800253464342E3425346434003456346534FF
:100E58007234203454346F3464346F34733400344F
:100E68004D346F346E34693474346F347234613491
:100E78000034253464343D34253464342E34253428
:100E88006434003431342034733465346E3473344C
:100E98006F34723400344D34613478342F344D3427
:100EA80069346E3400344C3469346D3470346134D0
:100EB80072340034703470346D343D3425347534F4
:100EC80000343134203468346F347234613400347F
:100ED8003134303420347334653467340034333477
:100EE800303420347334653467340034313430346A
:100EF80020346D3469346E34003433343034203463
:100F08006D3469346E3400343134203473346534CC
:100F180067340034313420346D3469346E3400342D
:100F280041340034831203130614E72F8316031386
:100F3800250883120313FF00831603132408840073
:100F4800831203130A128A1100260A128A118316C1
:100F58000313A60004300310A60CFF3E031DAF2F99
:100F68002608A7002708A80028080A168A110824B6
:100F78000A128A110D3083160313A600A60BC22F7E
:100F880083160313250883120313FF008316031324
:100F980024088400831203130A128A1100260A12F5
:100FA8008A110A168A1108240A128A110D3083162A
:100FB8000313A600A60BDE2F013083160313A40724
:100FC8000318A50AE72F83160313250883120313B2
:100FD800FF008316031324088400831203130A12E4
:100FE8008A1100260A128A110038031DFC2FFD2FD2
:060FF8009A2FFE2F0800F5
:1010020083160313A601A11F072808281028A00988
:10101200A109A00A0319A10AA601A60A1028A31F62
:10102200132814281E28A209A309A20A0319A30A35
:101032000130A4002408A6061E28A701A801210841
:1010420020040319252826286328A501A50A352886
:1010520001300310A00DA10DFF3E031D2A2801300F
:10106200A4002408A5073528A11F382839282928D3
:101072003B283B2801300310A70DA80DFF3E031D9E
:101082003C2821082302031D482820082202031CB1
:101092004B284C2854282008A2022108031CA30331
:1010A200A3022714542801300310A10CA00CFF3E08
:1010B200031D55280130A502031D602861283B2825
:1010C200632863282608031D67286D28A709A80935
:1010D200A70A0319A80A6D282808A101A107270851
:1010E200A001A0077428080083160313EA00CB2886
:1010F200831603136A080A168A1100200A128A1537
:10110200EA28831603136A080A128A1126230A128E
:101112008A15EA28831603136A080A168A113720E9
:101122000A128A15EA28831603136A080A168A1114
:1011320037200A128A15EA28831603136A080A1648
:101142008A11BA250A128A15EA28831603136A0835
:101152000A168A1115200A128A15EA288316031321
:101162006A080A168A1126200A128A15EA288316A4
:1011720003136A080A168A1127270A128A15EA280F
:10118200831603136A080A168A110B260A128A1595
:10119200EA28EA28831203136D08003A0319792812
:1011A200013A03198228033A03198B28013A0319D9
:1011B2009428073A03199D28013A0319A628033AED
:1011C2000319AF28013A0319B8280F3A0319C128A5
:1011D200EA280800831603138C1EF028F12805293B
:1011E200831203138C1EF628F72805291A08413AA0
:1011F200031DFC28FD2805290A128A1565210A12F9
:101202008A150529052905298B1E08290929582926
:101212000B1D0C290D29582902300A168A119F210B
:101222000A128A15730883120313DF01DF0772089B
:10123200DE01DE075E08D70001300310D70DFF3E46
:10124200031D1E290310570D023E123E84008630F4
:101252000318013EFF000A128A1100260A128A159B
:10126200DC000A128A1100260A128A15DD005D08C6
:101272006C06031D3E295C086B06031941294229AD
:1012820049290130EB070318EC0A0030EC07532917
:101292000A128A158A250A128A1583120313EB0190
:1012A200EC015329273081000B1158295829831248
:1012B20003135B08FF005A088A0059088400580E7D
:1012C2008300FE0E7E0E0900FA0108300A168A110A
:1012D2000D210A128A15F4007408F6007608F4004B
:1012E2007407F5007508F80000300A168A110D21FE
:1012F2000A128A15F4007408F7000330F400740827
:10130200F00077080A168A1172200A128A15023E24
:101312002E3E840086300318013E83120313FF0021
:101322000A128A1100260A128A1599000730F5005E
:101332007D30F400F40B9B29F50B9B2983120313D8
:1013420099010730F5007D30F400F40BA629F50B66
:10135200A629DD297A080F3E0A168A110D210A12E2
:101362008A15F4007408F9007908831203139900AE
:101372000730F5007D30F400F40BBD29F50BBD29D3
:101382007A080E3E0A168A110D210A128A15F400F5
:101392007408F90079088312031399000730F500E5
:1013A2007D30F400F40BD329F50BD3297A08023EE1
:1013B200F4007408FA00DD2978087A02031CE22995
:1013C200E329AB29E4290800F6000030FA000030D6
:1013D200F9000030F8000030F70076084C3E840037
:1013E20086300318013E83120313FF000A128A118A
:1013F20000260A128A15F200F20DF20D1F0872067B
:10140200C33972069F000630F200F20B062A000072
:10141200FB01FC0100307C02203003197B02031C1B
:10142200132A142A162A532A532A831203139F14A7
:101432001A2A9F181D2A1E2A1A2A1F2A83160313E4
:101442001E08F200831203131E08F3000030F31B80
:10145200FF30F400F5007208F70773080311031850
:10146200013E0319352AF807740803110318013ED7
:1014720003193C2AF907750803110318013E0319E1
:10148200432AFA070130FB070318FC0A0030FC0765
:1014920000307C02203003197B02031C512A522A9D
:1014A200162A532A7708F2007808F3007908F40024
:1014B2007A08F50005300310F50CF40CF30CF20C6D
:1014C200FF3E031D5C2A7308F101F1077208F00167
:1014D200F0076B2A08003B3084006030831203134C
:1014E200B7000408B8000930B90037088400831334
:1014F2000008BA00B70A380884003A088000B80A1F
:10150200B90B762A3508FA01FA073408F901F90706
:101512000A30FB000030FC000A168A118E230A12E0
:101522008A157C0883120313C7007B08C6007A0859
:10153200C5007908C4003D30A0008730A100033007
:10154200B7003708F00036080A168A1172200A120C
:101552008A15023E2E3E840086300318013E831215
:101562000313FF000A128A1100260A128A15A2002A
:10157200A301A21BA3034708A501A5074608A401CE
:10158200A4074508A701A7074408A601A6073B3000
:101592000A128A1560240A128A150314831203138D
:1015A200360D443E840086300318013EFF000A12C5
:1015B2008A1100260A128A15B7003708F200360887
:1015C200B8003807443E840086300318013EFF000D
:1015D2000A128A1100260A128A150A168A11512144
:1015E2000A128A153B30F2000030F3000A168A1103
:1015F200D1240A128A15080083160313A6000030AC
:10160200AA000030A9000030A8000030A700260878
:101612004C3E840086300318013E83120313FF0000
:101622000A128A1100260A128A1583160313A200CF
:10163200A20DA20D831203131F08831603132206A1
:10164200C3392206831203139F0006308316031345
:10165200A200A20B2A2B000083160313AB01AC01DC
:1016620000302C02203003192B02031C392B3A2B99
:101672003C2B7B2B7B2B831203139F14402B9F1835
:10168200432B442B402B452B831603131E08A20029
:10169200831203131E0883160313A3000030A31B37
:1016A200FF30A400A5002208A7072308031103188E
:1016B200013E03195D2BA807240803110318013EFC
:1016C2000319642BA907250803110318013E031906
:1016D2006B2BAA070130AB070318AC0A0030AC072A
:1016E20000302C02203003192B02031C792B7A2B99
:1016F2003C2B7B2B2708A2002808A3002908A40062
:101702002A08A50005300310A50CA40CA30CA20CFA
:10171200FF3E031D842B2308A101A1072208A0017B
:10172200A007932B08000A168A11E5220A128A15CD
:101732000A168A11A4200A128A150A168A11182377
:101742000A128A15C53083160313A4008630A50039
:101752000A128A1196270A128A15943083160313E5
:10176200A4008730A5000A128A1196270A128A1548
:1017720083160313A20102300A168A11F4210A12F7
:101782008A150B3083160313A4008730A5000A12B2
:101792008A1196270A128A150C300A168A112C21F0
:1017A2000A128A155D3A0319D72BD82B3A2C8316C5
:1017B2000313A00108300A168A1153230A128A154C
:1017C20083160313A00100300A168A1153230A124A
:1017D2008A15003083160313A3000030A4000230E0
:1017E2000A168A11BD200A128A15FF3083160313C6
:1017F200A300FF30A40004300A168A11BD200A1289
:101802008A15003083160313A3000030A4000630AB
:101812000A168A11BD200A128A1583160313ED01D6
:10182200C8306D02031C162C172C192C2E2C2E2CB2
:10183200A0016D080E3E0A168A1153230A128A1558
:10184200013083160313EB006B08ED07C8306D02FD
:10185200031C2C2C2D2C192C2E2C5D30EB006B082C
:10186200A0000C300A168A1153230A128A153A2C48
:101872003A2C0A128A11E7250A128A150A168A15C3
:10188200F3270A128A158B17462C0A168A1123226D
:101892000A128A1583160313EB006B08EC006C081E
:1018A200031D542C462C6C080A128A1575200A1244
:1018B2008A15462C462C462C0A128A1112288312AB
:1018C2000313B2002230A8002808AC00692D3308A7
:1018D200253A03196D2C6E2C7A2C3308A800320895
:1018E20084002808831380000130A8002808B2076A
:1018F200692DAD01832C842DA22CA22C692D2D17CC
:10190200A22CA22C2108A9002008A8000130A007BF
:101912000318A10A2908FF00280884000A128A1164
:1019220000260A128A15B300003A0319842D643A7C
:101932000319A22C0D3A0319A22C1C3A0319802C6C
:10194200692D2D1BA52CA62CC12C2C0884008313D9
:101952000008AE00840A0008AF000230A800280880
:10196200AC07AF1FB52CB62CCE2C0330A80028082C
:10197200AD04AE09AF09AE0A0319AF0ACE2CCE2CC4
:101982002C08840083130008AE00840A0008AF000C
:101992000230A8002808AC07CE2CB301B30A3308E2
:1019A200053A031DD52CD62CD82C042D042D330832
:1019B200A80028073A3E840086300318013EFF0043
:1019C2000A128A1100260A128A15A9000A128A111D
:1019D20000260A128A15AA002A082F02031DF32CD8
:1019E20029082E020318F62CF72CF92C042D042DAD
:1019F2000130A8002808B3073308053A031D022D59
:101A0200032DD82C042D2D0803390319092D0A2D75
:101A1200162D2D30A8003208840028088313800078
:101A22000130A8002808B207162D3308A80028089C
:101A3200AB005D2D0A30F8000030F9002B08A80039
:101A420028073A3E840086300318013EFF000A123E
:101A52008A1100260A128A15F0000A128A1100263B
:101A62000A128A15F1002F08F301F3072E08F2017A
:101A7200F2070A168A111E250A128A157108FB013D
:101A8200FB077008FA01FA070A168A1149240A129A
:101A92008A157808303E83120313A9002908B3007F
:101AA2003308A8003208840028088313800001301C
:101AB200A8002808B2075D2DFF30A8002808AB0750
:101AC2002B08FF3A031D662D672D1B2D692D692DED
:101AD2002108A9002008A8000130A0070318A10AC4
:101AE2002908FF00280884000A128A1100260A1217
:101AF2008A15AA002A08B300B308031D812D822D7E
:101B0200682C842D842D3208840083138001892D52
:101B1200080000300A168A110D210A128A15831252
:101B22000313C8004808D0000330C8004808F0007A
:101B320050080A168A1172200A128A15023E2E3E97
:101B4200840086300318013E83120313FF000A1239
:101B52008A1100260A128A15C9004908D1000830E4
:101B62000A168A110D210A128A1583120313C8005C
:101B72004808D20006300A168A119F210A128A15D5
:101B8200730883120313CB01CB077208CA01CA0779
:101B920004300A168A119F210A128A1573088312C9
:101BA2000313CD01CD077208CC01CC070A168A11A6
:101BB2008B200A128A15831203136D08023A031D41
:101BC200E32DE42D122ED3010A2E53080A128A1590
:101BD200E5210A128A15710883120313CF01CF0778
:101BE2007008CE01CE074F08B501B5074E08B40103
:101BF200B4075308C8004808B6000A128A156C22B6
:101C02000A128A15013083120313C8004808D30749
:101C12000A2E51085302031C0F2E102EE62DB32E4E
:101C2200B32E6D08033A031D172E182EB32ED401BE
:101C3200AA2E64305202031C1F2E202E312E8B122C
:101C42000A168A118B200A128A15B730F2008630E2
:101C5200F3000A168A11D1240A128A15B32EA32E72
:101C62008312031354080A128A15E5210A128A15EF
:101C7200710883120313D601D6077008D501D50760
:101C82004D085602031D472E4C08550203184A2ED2
:101C92004B2E582E5608F401F4075508F301F307AA
:101CA20004300A168A115C200A128A15582E8312F1
:101CB200031356084B02031D602E55084A020318EF
:101CC200632E642E702E5608F401F4075508F301B2
:101CD200F30706300A168A115C200A128A1583124B
:101CE20003135608F401F4075508F301F3075208E9
:101CF200C80048070E3E0A168A115C200A128A158D
:101D0200013083120313C8004808D2075208C800E2
:101D12004808F00008300A168A1183220A128A152E
:101D2200831203135608B501B5075508B401B40769
:101D32005408C8004808B6000A128A156C220A1212
:101D42008A15A32E013083120313C8004808D40752
:101D5200AA2E51085402031CAF2EB02E1A2EB32EF7
:101D6200B32EB32E080083160313C000B030B600A2
:101D72003608BA00D72F4108253A0319C12EC22EC0
:101D8200CE2E4108B6004008840036088313800036
:101D92000130B6003608C007D72FBB01D72EFA2F65
:101DA200FE2EFE2ED72F3B17FE2EFE2E2F08B7003B
:101DB2002E08B6000130AE070318AF0A37088312A7
:101DC2000313FF00831603133608840083120313E0
:101DD2000A128A1100260A128A1583160313C100F9
:101DE200003A0319FA2F643A0319FE2E0D3A031929
:101DF200FE2E1C3A0319D42ED72F3B1B012F022F84
:101E02001D2F3A08840083130008BC00840A0008CE
:101E1200BD000230B6003608BA07BD1F112F122FBF
:101E22002A2F0330B6003608BB04BC09BD09BC0A20
:101E32000319BD0A2A2F2A2F3A08840083130008A7
:101E4200BC00840A0008BD000230B6003608BA079A
:101E52002A2FC101C10A4108053A031D312F322F31
:101E6200342F682F682F4108B60036073A3E8400A7
:101E720086300318013E83120313FF000A128A11EF
:101E820000260A128A1583160313B700831203135E
:101E92000A128A1100260A128A1583160313B80041
:101EA20038083D02031D572F37083C0203185A2FEA
:101EB2005B2F5D2F682F682F0130B6003608C107EF
:101EC2004108053A031D662F672F342F682F3B0800
:101ED200033903196D2F6E2F7A2F2D30B60040086B
:101EE20084003608831380000130B6003608C0072C
:101EF2007A2F4108B6003608B900CB2F0A30A80065
:101F02000030A9003908B60036073A3E8400863010
:101F12000318013E83120313FF000A128A110026DE
:101F22000A128A1583160313A000831203130A12DE
:101F32008A1100260A128A1583160313A1003D088E
:101F4200A301A3073C08A201A2070A168A116B2566
:101F52000A128A15831603132108AB01AB07200866
:101F6200AA01AA070A168A118C240A128A15831654
:101F720003132808303EB7003708C1004108B600F5
:101F8200400884003608831380000130B60036080A
:101F9200C007CB2FFF30B6003608B9073908FF3A21
:101FA200031DD42FD52F7F2FD72FD72F2F08B70060
:101FB2002E08B6000130AE070318AF0A37088312A5
:101FC2000313FF00831603133608840083120313DE
:101FD2000A128A1100260A128A1583160313B80000
:101FE2003808C100C108031DF72FF82FBC2EFA2FA5
:101FF200FA2F4008840083138001FF2F080001306C
:102002000A128A1115200A168A11080034348734FC
:102012008B3486342A3487344F34873457348734A8
:10202200A93486349A34863483160313E800680888
:10203200023A031D1D281E28252801300A128A1182
:1020420015200A168A112528080083160313E800B2
:102052006808023A031D2E282F28362801300A125A
:102062008A1115200A168A113628080083160313CE
:10207200E8006808023A031D3F28402848288B12CE
:1020820001300A128A1115200A168A1148280800FE
:102092007E088A007F0882000A168A1149200A16E1
:1020A2008A118000840A04087D0603190034FF0A9D
:1020B2000319FE0A4D28F6007408F5007508F000B1
:1020C20076080A168A1183220A168A117308F50005
:1020D2007508F000760A0A168A1183220A168A11F6
:1020E2000800F200F3017528721C782879287E28EE
:1020F2007008F1007108F3077E280310F00D031039
:10210200F20CF208031D8628872875288828730890
:102112008A28080083120313061000300A168A1157
:10212200C9210A168A1101300A168A11C9210A1612
:102132008A110330F3009730F200F20B9E28F30B62
:102142009E28A328080083160317871183160313FA
:102152000713871798161812831203139817181665
:10216200831603138C160B171811193099001813C4
:10217200831203138C12080083160313A60024088B
:10218200A5002508A00026080A168A1153230A165C
:102192008A11831603132308A5002508A000260A26
:1021A2000A168A1153230A168A110800831203138E
:1021B200061000300A168A1108240A168A11013004
:1021C2000A168A1108240A168A1103308316031389
:1021D200A3009730A200A20BEC28A30BEC28F12855
:1021E200080083160313A300A201F728231CFA2870
:1021F200FB2800292008A1002108A20700290310BA
:10220200A00D0310A30CA308031D08290929F72810
:102212000A2922080C290800F1006400831603171A
:102222008C18142915290E291629710883120317EF
:102232008D003F30F0007008831603178C050C14D4
:1022420003100C1803140030031801308312031713
:102252000C082B29080083160313A10064008316BF
:1022620003178C18352936292F293729831603138A
:102272002108831203178D003F3083160313A00039
:102282002008831603178C050C1403100C18031472
:10229200003003180130831203170C08502908007C
:1022A200F400831203130610652908300A168A11F6
:1022B200C9210A168A116D290C300A168A11C92100
:1022C2000A168A116D296D297408013A03195629D3
:1022D200033A03195D296D2972080A168A11C92168
:1022E2000A168A110D30F300F30B752908008313C7
:1022F200603084006E300A168A15EB270A168A119E
:1023020083160313EE01EF01831790308400C4306B
:102312000A168A15EB270A168A11D230FD001030F0
:10232200FE000730FF00C43084000A168A114D20D7
:102332000A168A1183010A128A15942BF600F701F4
:10234200F801760A0A168A110D210A168A11F4007A
:10235200F5017408F7007508F80076080A168A1164
:102362000D210A168A11F400F5017408F500F40132
:1023720077087407F70078080318780A7507F800D9
:102382007808F301F3077708F201F207C829080079
:10239200F100711CCD29CE29D2298312031306150F
:1023A200D529831203130611F11CD829D929DB2957
:1023B2008615DC298611711DDF29E029E22906161E
:1023C200E3290612F11DE629E729E9298616EB29F8
:1023D2008612EB290D30F000F00BED298312031366
:1023E20086148610080083160313A40083120313B5
:1023F20006100A2A08300A168A1108240A168A11B7
:10240200142A0C300A168A1108240A168A11142A70
:10241200142A831603132408013A0319FB29033AE9
:102422000319022A142A8316031322080A168A1190
:1024320008240A168A110D3083160313A300A30B76
:10244200202A0800023083160313A2000430A100E0
:10245200BA30A000A00B2B2AA10B2B2AA20B2B2AED
:102462000000831203138719372A382A3B2A0130C6
:10247200522A522A07193E2A3F2A422A0230522A57
:10248200522A8718452A462A492A0330522A522AB2
:1024920007184C2A4D2A502A0430522A522A003058
:1024A200522A080083160313A600A701A801260AD0
:1024B2000A168A112C210A168A1183160313A40004
:1024C200A5012408A7002508A80026080A168A11D3
:1024D2002C210A168A1183160313A400A5012408CD
:1024E200A500A40127082407A70028080318280A22
:1024F2002507A8002808A301A3072708A201A2070D
:10250200822A0800F200852A831603178C188A2A69
:102512008B2A852A8C2A7208831203178D00700871
:102522008C003F30F1007108831603178C0583126B
:10253200031303108B1F9E2A9F2AA02A03148B13B6
:10254200831603170C1555308D00AA308D008C149C
:102552000C1183120313031CAF2AB02AB32A8B1760
:10256200B32AB32A080083160313A400A601220883
:10257200031DBC2AE22AA501A50AC62A0310A20D40
:102582000130A3002308A507C62AA21FC92ACA2A06
:10259200BF2ACC2ACC2A0310A60D22082402031C2F
:1025A200D32AD42AD82A2208A4022614D82A03100D
:1025B200A20C0130A502031DDF2AE02ACC2AE22A5E
:1025C200E22A2608E42A0800831203130710871060
:1025D200071187118316031307140718F12AF52A26
:1025E200831603138714F82A831603138710871898
:1025F200FB2AFF2A831603130715022B83160313E4
:1026020007110719052B092B8316031387150C2BAA
:102612008316031387118113F0309500123083164D
:1026220003178900F03083160313960008008316FF
:1026320003138612061286110611861006108312E3
:102642000313861206128611061186100610023036
:102652000A168A1108240A168A1108300A168A11E3
:1026620008240A168A1100300A168A1108240A164A
:102672008A1100300A168A1108240A168A110C30AF
:102682000A168A1108240A168A1100300A168A11BB
:1026920008240A168A1106300A168A1108240A1614
:1026A2008A11080083160313A200572B83160317FF
:1026B2008C185C2B5D2B572B5E2B83160313220881
:1026C200831203178D008316031320088312031746
:1026D2008C003F3083160313A100210883160317D1
:1026E2008C058312031303108B1F782B792B7A2B03
:1026F20003148B13831603170C1555308D00AA3063
:102702008D008C140C1183120313031C892B8A2B4A
:102712008D2B8B178D2B8D2B08007C08F101F10777
:102722007B08F001F0077A08F301F3077908F20158
:10273200F2070A168A118E270A168A117108831265
:102742000313A301A3077008A201A2077C08F101E9
:10275200F1077B08F001F0077A08F301F307790823
:10276200F201F2070A168A115D260A168A11710809
:1027720083120313A101A1077008A001A007230877
:10278200FC002208FB002108FA002008F900C92BEE
:102792000800831603132C08A101A1072B08A0012E
:1027A200A0072A08A301A3072908A201A2070A1267
:1027B2008A1501200A168A11831603132108B00113
:1027C200B0072008AF01AF072C08A101A1072B0811
:1027D200A001A0072A08A301A3072908A201A207B2
:1027E2000A168A11C1260A168A11831603132108B2
:1027F200AE01AE072008AD01AD073008AC002F08CE
:10280200AB002E08AA002D08A900072C0800831689
:102812000313A100211C0E2C0F2C132C8312031363
:102822000615162C83120313061183160313A11C1B
:102832001B2C1C2C202C831203138615232C831291
:102842000313861183160313211D282C292C2D2CEA
:10285200831203130616302C8312031306128316F7
:102862000313A11D352C362C3A2C83120313861622
:102872003E2C8312031386123E2C0D308316031353
:10288200A000A00B422C83120313861486100800AA
:102892007908780403194E2C4F2C842CFD01FD0A73
:1028A2005E2C01300310F80DF90DFF3E031D532C71
:1028B2000130FC007C08FD075E2CF91F612C622CA4
:1028C200522C642C642C79087B02031D6A2C780834
:1028D2007A02031C6D2C6E2C752C7808FA0279088A
:1028E200031CFB03FB02752C01300310F90CF80CDE
:1028F200FF3E031D762C0130FD02031D812C822C2C
:10290200642C842C842C7B08F901F9077A08F801DD
:10291200F8078B2C080083160313290828040319CF
:10292200932C942CC92CAD01AD0AA32C01300310B9
:10293200A80DA90DFF3E031D982C0130AC002C08F8
:10294200AD07A32CA91FA62CA72C972CA92CA92C28
:1029520029082B02031DAF2C28082A02031CB22CC3
:10296200B32CBA2C2808AA022908031CAB03AB0219
:10297200BA2C01300310A90CA80CFF3E031DBB2C7E
:102982000130AD02031DC62CC72CA92CC92CC92CA1
:102992002B08A901A9072A08A801A807D02C08001A
:1029A2008312031306140C2D7308FF0072088400AF
:1029B2000A128A1100260A168A11F4000430031042
:1029C200F40CFF3E031DE02C7408F5007508F600B8
:1029D20076080A168A11C9210A168A110D30F400E6
:1029E200F40BF12C730883120313FF0072088400A6
:1029F2000A128A1100260A168A110A168A11C92198
:102A02000A168A110D30F400F40B052D0130F2077D
:102A12000318F30A0C2D730883120313FF007208C4
:102A220084000A128A1100260A168A110038031D30
:102A32001B2D1C2DD52C1D2D0800F601F701710848
:102A420070040319252D262D632DF501F50A352D68
:102A520001300310F00DF10DFF3E031D2A2D013050
:102A6200F4007408F507352DF11F382D392D292D65
:102A72003B2D3B2D01300310F60DF70DFF3E031DDC
:102A82003C2D71087302031D482D70087202031C4D
:102A92004B2D4C2D542D7008F2027108031CF303C8
:102AA200F3027614542D01300310F10CF00CFF3EAA
:102AB200031D552D0130F502031D602D612D3B2DA7
:102AC200632D632D7708F101F1077608F001F00715
:102AD2006A2D080083160313A501A601210820040C
:102AE2000319742D752DB22DA701A70A842D01306B
:102AF2000310A00DA10DFF3E031D792D0130A4008E
:102B02002408A707842DA11F872D882D782D8A2DB3
:102B12008A2D01300310A50DA60DFF3E031D8B2D3E
:102B220021082302031D972D20082202031C9A2D3F
:102B32009B2DA32D2008A2022108031CA303A3029C
:102B42002514A32D01300310A10CA00CFF3E031D80
:102B5200A42D0130A702031DAF2DB02D8A2DB22D59
:102B6200B22D2608A101A1072508A001A007B92DB1
:102B7200080083160313E900FD2D6F08031DC22D03
:102B82000A2E0130EF0204300A128A1115200A16A9
:102B92008A110A2E0A2E00300A168A112C210A16D0
:102BA2008A1183160313E8006808A20008300A1687
:102BB2008A112C210A168A110A168A11B4220A16BF
:102BC2008A11831603136F020318E82DE92D0A2ECA
:102BD2000130E8006808EF0704300A128A11152054
:102BE2000A168A110A2E0A2E01300A128A1115209B
:102BF2000A168A110A2E0A2E831603136908023A4C
:102C02000319F52D013A0319BE2D073A0319CC2DEC
:102C12000A2E080083160313E9004C2E6E08031DCA
:102C2200132E5C2E0130EE0208300A128A11152092
:102C32000A168A115C2E5C2E0330831603136E0271
:102C42000318242E252E5C2E0130E8006808EE07BA
:102C520008300A128A1115200A168A115C2E5C2E7F
:102C620001300A128A1115200A168A115C2E831667
:102C720003136E08E8006808A00000300A168A11E3
:102C820053230A168A1101300A128A1115200A16D4
:102C92008A115C2E5C2E831603136908013A03190C
:102CA200382E033A0319312E013A03190F2E073A2F
:102CB20003191D2E5C2E0800F601F31F612E622EF1
:102CC2006A2EF209F309F20A0319F30AF601F60A67
:102CD2006A2EF11F6D2E6E2E742EF009F109F00A84
:102CE2000319F10A742E710870040319792E7A2ED1
:102CF200AF2EF501F50A892E01300310F00DF10D0A
:102D0200FF3E031D7E2E0130F4007408F507892E64
:102D1200F11F8C2E8D2E7D2E8F2E8F2E7108730219
:102D2200031D952E70087202031C982E992EA02E58
:102D32007008F2027108031CF303F302A02E0130A3
:102D42000310F10CF00CFF3E031DA12E0130F50221
:102D5200031DAC2EAD2E8F2EAF2EAF2E7608031D87
:102D6200B32EB92EF209F309F20A0319F30AB92EA6
:102D72007308F101F1077208F001F007C02E080094
:102D820083160313A601A31FC72EC82ED02EA20995
:102D9200A309A20A0319A30AA601A60AD02EA11FFB
:102DA200D32ED42EDA2EA009A109A00A0319A10A52
:102DB200DA2E210820040319DF2EE02E152FA5019B
:102DC200A50AEF2E01300310A00DA10DFF3E031D39
:102DD200E42E0130A4002408A507EF2EA11FF22E35
:102DE200F32EE32EF52EF52E21082302031DFB2ED2
:102DF20020082202031CFE2EFF2E062F2008A2020C
:102E02002108031CA303A302062F01300310A10C07
:102E1200A00CFF3E031D072F0130A502031D122F38
:102E2200132FF52E152F152F2608031D192F1F2FCF
:102E3200A209A309A20A0319A30A1F2F2308A101A9
:102E4200A1072208A001A007262F0800831603135A
:102E5200E8007D2F83160317420841040319322F1D
:102E6200332F8D2F0130C1020030031CC203C20276
:102E720007300A128A1115200A168A118D2F8D2FFA
:102E82000030831603174202063003194102031869
:102E92004B2F4C2F8D2F0130C1070318C20A00306F
:102EA200C20707300A128A1115200A168A118D2FBD
:102EB2008D2F01300A128A1115200A168A118D2FC0
:102EC20083160317420883160313A401A40783166B
:102ED2000317410883160313A301A30702300A163E
:102EE2008A11BD200A168A1101300A128A11152090
:102EF2000A168A118D2F8D2F831603136808013A43
:102F02000319612F033A03195A2F013A03192B2F80
:102F1200073A0319412F8D2F0800F601F11F922F56
:102F2200932F9B2FF009F109F00A0319F10AF60118
:102F3200F60A9B2FF31F9E2F9F2FA92FF209F30949
:102F4200F20A0319F30A0130F4007408F606A92FF5
:102F5200F701F801710870040319B02FB12FEE2F99
:102F6200F501F50AC02F01300310F00DF10DFF3EFF
:102F7200031DB52F0130F4007408F507C02FF11FAF
:102F8200C32FC42FB42FC62FC62F01300310F70D45
:102F9200F80DFF3E031DC72F71087302031DD32FC7
:102FA20070087202031CD62FD72FDF2F7008F2028F
:102FB2007108031CF303F3027714DF2F01300310AF
:102FC200F10CF00CFF3E031DE02F0130F502031D52
:102FD200EB2FEC2FC62FEE2FEE2F7608031DF22FCC
:102FE200F82FF709F809F70A0319F80AF82F7808F1
:0E2FF200F101F1077708F001F007FF2F08004A
:103FD60064008001840A0406031900340406EC2FE9
:103FE6002730831203138100831603138112811174
:0A3FF600073081040B118B12080044
:02400E00E1ECE3
:00000001FF
