:060000000A128A11122809
:10000800FE00030E83120313D8000408D9000A085F
:10001800DA007F08DB000A128A15E9280A168A1115
:10002800812983160313DB00C63084009030C20098
:100038000408C3001130C400420884008317000874
:10004800C500C20A43088400831345088000C30A18
:10005800C40B2028012B0A168A11E0200A128A11E3
:1000680083160317430883160313C2004207C43ECE
:10007800840083170008A400840A0008A5000A1257
:100088008A1196270A128A111D2B8B161D2B8B1687
:100098001D2B0A168A11E0200A128A1108300A1646
:1000A8008A1135210A128A1183160313C2004208E5
:1000B800D700D708031D612862286C28D330A40014
:1000C8008630A5000A128A1196270A128A111D2B5A
:1000D80000300A168A1135210A128A118316031371
:1000E800C2004208D8000330C2004208A0005808E5
:1000F8000A168A11FB200A128A11023E2E3E84003B
:1001080086300318013E83120313FF000A128A1176
:1001180000260A128A1183160313C3004308DC0061
:100128005C08C2004208A0006F080A168A11FB206A
:100138000A128A1183160313C30043070E3EC40034
:100148004408DD00E70143295D080A168A11842264
:100158000A128A11831603132308DA01DA07220820
:10016800D901D9070A30A0000030A1005A08A3011C
:10017800A3075908A201A2070A168A1169250A12BB
:100188008A11831603132108E301E3072008E2011B
:10019800E2070A30A8000030A9005A08AB01AB07F3
:1001A8005908AA01AA070A168A118A240A128A116A
:1001B800831603132908E501E5072808E401E40785
:1001C8003D30AE008730AF006708013EB000003018
:1001D80003180130B1006308B301B3076208B20124
:1001E800B2076508B501B5076408B401B407C6309D
:1001F8000A128A15B4260A128A11031483160313E5
:10020800670D443E840086300318013E83120313B1
:10021800FF000A128A1100260A128A118316031394
:10022800C2004208A2006708C3004307443E840096
:1002380086300318013E83120313FF000A128A1145
:1002480000260A128A110A168A1125220A128A1110
:10025800C63083160313A4000030A5000A128A11C1
:1002680096270A128A11831603135D08023EC200FC
:100278004208DD000130C2004208E70743295C0854
:100288006702031C48294929A8281D2B1D2B1D2B53
:100298000A168A11E0200A128A1106300A168A11F3
:1002A80084220A128A11831603132308DF01DF0749
:1002B8002208DE01DE0704300A168A1184220A1297
:1002C8008A11831603132308E101E1072208E001DC
:1002D800E0075F085E04031D722973298829FF302F
:1002E8006106031D7929FF306006031D7C297D29DD
:1002F8001D2BD330A4008630A5000A128A11962738
:100308000A128A111D2B1D2B0A3083160313A00015
:100318000030A1005F08A301A3075E08A201A2079D
:100328000A168A1169250A128A11831603132108ED
:10033800E301E3072008E201E2070A30A8000030E1
:10034800A9005F08AB01AB075E08AA01AA070A1655
:100358008A118A240A128A11831603132908E501CF
:10036800E5072808E401E4072030AE008730AF0035
:100378006308B101B1076208B001B0076508B301AD
:10038800B3076408B201B207C6300A128A15B42648
:100398000A128A11C63083160313A4000030A50080
:1003A8000A128A1196270A128A1183160313A201C8
:1003B80002300A168A1125220A128A110A30831677
:1003C8000313A0000030A1006108A301A30760087F
:1003D800A201A2070A168A1169250A128A11831630
:1003E80003132108E301E3072008E201E2070A30CA
:1003F800A8000030A9006108AB01AB076008AA019A
:10040800AA070A168A118A240A128A118316031364
:100418002908E501E5072808E401E4071630AE00DD
:100428008730AF006308B101B1076208B001B007B7
:100438006508B301B3076408B201B207C6300A12EF
:100448008A15B4260A128A11C63083160313A4002B
:100458000030A5000A128A1196270A128A111D2B4C
:100468001D2B83160313A00108300A168A11512385
:100478000A128A1183160313A00100300A168A1182
:1004880051230A128A11003083160313A300003087
:10049800A40002300A168A11C6200A128A11FF30F7
:1004A80083160313A300FF30A40004300A168A1130
:1004B800C6200A128A11003083160313A3000030E5
:1004C800A40006300A168A11C6200A128A11831659
:1004D8000313E601C8306602031C732A742A762ABD
:1004E8008B2A8B2AA00166080E3E0A168A11512310
:1004F8000A128A11013083160313C2004208E60764
:10050800C8306602031C892A8A2A762A8B2A0A1688
:100518008A11E0200A128A11DF3083160313A4001F
:100528008630A5000A128A1196270A128A111D2BF5
:100538000A168A11E0200A128A1183160317410845
:1005480083160313C20001300310C20DFF3E031DC2
:10055800A82A0310420D123E840086300318013E7B
:1005680083120313FF000A128A1100260A128A1145
:1005780083160313A400831203130A128A11002698
:100588000A128A1183160313A5000A128A119627E4
:100598000A128A111D2B0A168A11E0200A128A11E2
:1005A800033083160313C2004208A0006E080A161F
:1005B8008A11FB200A128A112E3E84008630031805
:1005C800013E83120313FF000A128A1100260A1241
:1005D8008A1183160313A400831203130A128A11C3
:1005E80000260A128A1183160313A5000A128A111B
:1005F80096270A128A111D2B1D2B831603135B08DD
:10060800013A03192F28033A03194928013A031913
:100618004B28073A03194D28013A03194C29033A84
:100628000319352A013A03199C2A0F3A0319CF2ACC
:100638001D2B831603135B08C200420883120313A1
:10064800ED00080083160317D600402D4308031D4C
:100658002E2B4B2D0130C30201300A128A111520AE
:100668000A128A114B2D4B2D0630831603174302AD
:1006780003183F2B402B4B2D013083160313E80042
:10068800680883160317C30701300A128A11152058
:100698000A128A114B2D4B2D252D0A168A11E0209E
:1006A8000A128A1100300A168A1135210A128A1193
:1006B80083160313E800680883160317D70003306E
:1006C80083160313E8006808A00083160317570869
:1006D8000A168A11FB200A128A11023E2E3E840055
:1006E80086300318013E83120313FF000A128A1191
:1006F80000260A128A1183160313E9006908831673
:100708000317D800DA01BE2B5A080A128A15FC22F0
:100718000A128A1183160313210883160317DD01B1
:10072800DD0783160313200883160317DC01DC0793
:100738005D0883160313C301C307831603175C08F8
:1007480083160313C201C207831603175A088316B8
:100758000313E8006808C4000A128A114C250A121B
:100768008A11013083160313E800680883160317FB
:10077800DA07BE2B58085A02031CC32BC42B882B3C
:10078800C52B02300A128A1115200A128A114B2D24
:100798000A168A11E0200A128A1108300A168A11EC
:1007A80035210A128A1183160313E8006808831694
:1007B8000317D90006300A168A1184220A128A11F0
:1007C80083160313230883160317D301D30783164D
:1007D8000313220883160317D201D20704300A161E
:1007E8008A1184220A128A11831603132308831696
:1007F8000317D501D5078316031322088316031799
:10080800D401D407DB01D42C59085B0783160313E2
:10081800E800E901E90D6908803AFF0080307F02AD
:10082800031D182C64306802031C1B2C1C2C2F2C55
:100838008B120A168A11E0200A128A11B730831621
:100848000313A4008630A5000A128A1196270A12FB
:100858008A11DB2CCB2C831603175B080A128A1526
:10086800FC220A128A118316031321088316031720
:10087800DD01DD0783160313200883160317DC0147
:10088800DC0755085D02031D4B2C54085C02031855
:100898004E2C4F2C622C5D0883160313A401A40769
:1008A800831603175C0883160313A301A3070430F8
:1008B8000A168A11C6200A128A11622C8316031797
:1008C8005D085302031D6A2C5C08520203186D2C44
:1008D8006E2C802C5D0883160313A401A4078316CD
:1008E80003175C0883160313A301A30706300A162F
:1008F8008A11C6200A128A11831603175D08831607
:100908000313A401A407831603175C0883160313B3
:10091800A301A30783160317590883160313E800D6
:1009280068070E3E0A168A11C6200A128A1101307B
:1009380083160313E800680883160317D9075908B4
:1009480083160313E8006808A00008300A168A1105
:1009580051230A128A11831603175D08831603139D
:10096800C301C307831603175C0883160313C20168
:10097800C207831603175B0883160313E800680889
:10098800C4000A128A114C250A128A11CB2C013094
:1009980083160313E800680883160317DB07D42CB3
:1009A80058085B02031CD92CDA2C082CDB2C0330EA
:1009B8000A128A1115200A128A114B2D04300A12C4
:1009C8008A1115200A128A114B2D05300A128A1134
:1009D80015200A128A114B2D06300A128A11152089
:1009E8000A128A114B2D02300A168A1184220A1221
:1009F8008A1183160313230883160317C201C2073B
:100A080083160313220883160317C101C107073091
:100A18000A128A1115200A128A114B2D00300A1663
:100A28008A1135210A128A1183160313E80068080F
:100A3800EE0008300A128A1115200A128A114B2D6D
:100A48004B2D831603174308003A0319512B013A1B
:100A58000319CC2B033A0319E22C013A0319E92CA8
:100A6800073A0319F02C013A0319F72C033A031932
:100A7800122D4B2D4B2D4B2D5608013A0319252DC0
:100A8800023A03192A2B073A0319382B4B2D080071
:100A9800C9308400603083160313C5000408C600FB
:100AA8000930C7004508840083130008C800C50A38
:100AB8004608840048088000C60AC70B562D43081C
:100AC800AA01AA074208A901A9070A30AB00003009
:100AD800AC000A168A11C8230A128A118316031356
:100AE8002C08D5002B08D4002A08D3002908D200E6
:100AF8003D30AE008730AF000330C5004508A00088
:100B080044080A168A11FB200A128A11023E2E3E58
:100B1800840086300318013E83120313FF000A1273
:100B28008A1100260A128A1183160313B000B10134
:100B3800B01BB1035508B301B3075408B201B2079B
:100B48005308B501B5075208B401B407C9300A12F1
:100B58008A15B4260A128A11031483160313440D46
:100B6800443E840086300318013E83120313FF00BD
:100B78000A128A1100260A128A1183160313C50065
:100B88004508A2004408C6004607443E8400863053
:100B98000318013E83120313FF000A128A1100266C
:100BA8000A128A110A168A1125220A128A11C930D4
:100BB80083160313A4000030A5000A128A11962791
:100BC8000A128A11080083120313061000300A164D
:100BD8008A11FA210A128A1101300A168A11FA2199
:100BE8000A128A110330F3009730F200F20BFA2D43
:100BF800F30BFA2DFF2D0800FF1B0A2E83137F1815
:100C080083170008840A0319FF0A08007F087F3940
:100C18008A000408840A0319FF0A8200883487348A
:100C2800123400346C348734B43400347334873469
:100C38001C3402348E348734383404347A3487349C
:100C480030342A348134873490347E3465348734A0
:100C58002034FD34463487340134EA34863402348F
:100C6800F5348634033400348734043401340034D2
:100C78000A34003464340034E8340334103427343C
:100C880001340034013408340234003402340834A6
:100C980000340134023404347A34013400348034AA
:100CA8003F34723431343F34FE3475343E34583472
:100CB80063343D3495341D343C34C534AE343A3451
:100CC8007934213439349434803437349334A73424
:100CD8003534563415343434003400340034003498
:100CE80080343F34F034FF34BE34E234A9343E3427
:100CF80083347634BE34AE342B343E343C34C3347F
:100D0800BD34D23413343D347834D334BB344D3409
:100D18006F346E34693474346F34723461342F3400
:100D28004734723461347634613400345134753464
:100D380061346E3474342034533465346E3473340F
:100D48006F347234653473340034543465346D341C
:100D580070346F34203441346D346F3473347434E8
:100D68007234613400344D3465346D346F34723408
:100D78006934613420344334683465346934613407
:100D8800003449346E346934633469346F34203440
:100D9800763431342E34353430342D3400344E34F6
:100DA80065346E34683475346D34203444346134B9
:100DB80064346F3400345434753464346F342034FC
:100DC8004C3469346D3470346F3400343234203428
:100DD800733465346E3473346F34723465347334F9
:100DE800003433342034733465346E3473346F34E0
:100DF80072346534733400343434203473346534D5
:100E08006E3473346F34723465347334003431346F
:100E180032342F34303432342F34323430343134A5
:100E2800363400344D3469346E343D3425346434FA
:100E38002E342534643400344D34613478343D34F0
:100E4800253464342E3425346434003456346534FF
:100E58007234203454346F3464346F34733400344F
:100E68004D346F346E34693474346F347234613491
:100E78000034253464343D34253464342E34253428
:100E88006434003431342034733465346E3473344C
:100E98006F34723400344D34613478342F344D3427
:100EA80069346E3400344C3469346D3470346134D0
:100EB80072340034703470346D343D3425347534F4
:100EC80000343134203468346F347234613400347F
:100ED8003134303420347334653467340034333477
:100EE800303420347334653467340034313430346A
:100EF80020346D3469346E34003433343034203463
:100F08006D3469346E3400343134203473346534CC
:100F180067340034313420346D3469346E3400342D
:100F280041340034831203130614E72F8316031386
:100F3800250883120313FF00831603132408840073
:100F4800831203130A128A1100260A128A118316C1
:100F58000313A60004300310A60CFF3E031DAF2F99
:100F68002608A7002708A80028080A168A110624B8
:100F78000A128A110D3083160313A600A60BC22F7E
:100F880083160313250883120313FF008316031324
:100F980024088400831203130A128A1100260A12F5
:100FA8008A110A168A1106240A128A110D3083162C
:100FB8000313A600A60BDE2F013083160313A40724
:100FC8000318A50AE72F83160313250883120313B2
:100FD800FF008316031324088400831203130A12E4
:100FE8008A1100260A128A110038031DFC2FFD2FD2
:060FF8009A2FFE2F0800F5
:10100200F601F11F052806280E28F009F109F00A59
:101012000319F10AF601F60A0E28F31F1128122805
:101022001C28F209F309F20A0319F30A0130F40049
:101032007408F6061C28F701F801710870040319F8
:10104200232824286128F501F50A332801300310EA
:10105200F00DF10DFF3E031D28280130F400740845
:10106200F5073328F11F3628372827283928392849
:1010720001300310F70DF80DFF3E031D3A287108E9
:101082007302031D462870087202031C49284A286D
:1010920052287008F2027108031CF303F30277145A
:1010A200522801300310F10CF00CFF3E031D5328AF
:1010B2000130F502031D5E285F2839286128612866
:1010C2007608031D65286B28F709F809F70A031942
:1010D200F80A6B287808F101F1077708F001F007A8
:1010E2007228080083160313EA00C9288316031323
:1010F2006A080A168A15F9270A128A15E828831639
:1011020003136A080A128A1126230A128A15E8288A
:10111200831603136A080A168A1147200A128A15CF
:10112200E828831603136A080A168A1147200A124E
:101132008A15E828831603136A080A168A11B82545
:101142000A128A15E828831603136A080A168A11F6
:1011520025200A128A15E828831603136A080A163C
:101162008A1136200A128A15E828831603136A08A0
:101172000A168A1125270A128A15E82883160313EC
:101182006A080A168A1109260A128A15E828E82826
:10119200831203136D08003A03197728013A0319E1
:1011A2008028033A03198928013A03199228073A39
:1011B20003199B28013A0319A428033A0319AD28FD
:1011C200013A0319B6280F3A0319BF28E828080084
:1011D200831603138C1EEE28EF28032983120313B0
:1011E2008C1EF428F52803291A08413A031DFA280F
:1011F200FB2803290A128A1563210A128A15032978
:10120200032903298B1E0629072956290B1D0A29A2
:101212000B29562902300A168A11D0210A128A1580
:10122200730883120313DF01DF077208DE01DE0792
:101232005E08D70001300310D70DFF3E031D1C29A5
:101242000310570D023E123E840086300318013E01
:10125200FF000A128A1100260A128A15DC000A12FD
:101262008A1100260A128A15DD005D086C06031D2C
:101272003C295C086B0603193F29402947290130A4
:10128200EB070318EC0A0030EC0751290A128A1501
:101292008A250A128A1583120313EB01EC015129E4
:1012A200273081000B1156295629831203135B083C
:1012B200FF005A088A0059088400580E8300FE0E67
:1012C2007E0E0900FA0108300A168A1116210A1246
:1012D2008A15F4007408F6007608F4007407F50025
:1012E2007508F80000300A168A1116210A128A15AA
:1012F200F4007408F7000330F4007408F000770873
:101302000A168A11AD200A128A15023E2E3E840068
:1013120086300318013E83120313FF000A128A115A
:1013220000260A128A1599000730F5007D30F40074
:10133200F40B9929F50B99298312031399010730AC
:10134200F5007D30F400F40BA429F50BA429DB2968
:101352007A080F3E0A168A1116210A128A15F4001B
:101362007408F90079088312031399000730F50015
:101372007D30F400F40BBB29F50BBB297A080E3E35
:101382000A168A1116210A128A15F4007408F90045
:1013920079088312031399000730F5007D30F400B9
:1013A200F40BD129F50BD1297A08023EF400740816
:1013B200FA00DB2978087A02031CE029E129A9292D
:1013C200E2290800F6000030FA000030F90000308F
:1013D200F8000030F70076084C3E8400863003188F
:1013E200013E83120313FF000A128A1100260A1219
:1013F2008A15F200F20DF20DF20D1F087206C739BE
:1014020072069F000630F200F20B052A0000FB0173
:10141200FC0100307C02203003197B02031C122ADB
:10142200132A152A522A522A831203131F15192A24
:101432001F191C2A1D2A192A1E2A831603131E0885
:10144200F200831203131E08F3000030F31BFF3077
:10145200F400F5007208F707730803110318013E40
:101462000319342AF807740803110318013E0319FB
:101472003B2AF907750803110318013E0319422A92
:10148200FA070130FB070318FC0A0030FC070030A2
:101492007C02203003197B02031C502A512A152A90
:1014A200522A7708F2007808F3007908F4007A08E3
:1014B200F50005300310F50CF40CF30CF20CFF3EB2
:1014C200031D5B2A7308F101F1077208F001F007AE
:1014D2006A2A08003B308400603083120313B7008D
:1014E2000408B8000930B9003708840083130008E3
:1014F200BA00B70A380884003A088000B80AB90B63
:10150200752A3508FA01FA073408F901F9070A3091
:10151200FB000030FC000A168A118C230A128A157D
:101522007C0883120313C7007B08C6007A08C50033
:101532007908C4003D30A0008730A1000330B70015
:101542003708F00036080A168A11AD200A128A15E9
:10155200023E2E3E840086300318013E831203139E
:10156200FF000A128A1100260A128A15A200A3019C
:10157200A21BA3034708A501A5074608A401A407C7
:101582004508A701A7074408A601A6073B300A128F
:101592008A1560240A128A15031483120313360D66
:1015A200443E840086300318013EFF000A128A116D
:1015B20000260A128A15B7003708F2003608B8006A
:1015C2003807443E840086300318013EFF000A12A9
:1015D2008A1100260A128A150A168A115A210A123B
:1015E2008A153B30F2000030F3000A168A11CF242C
:1015F2000A128A15080083160313A6000030AA00F7
:101602000030A9000030A8000030A70026084C3E98
:10161200840086300318013E83120313FF000A126E
:101622008A1100260A128A1583160313A200A20D3C
:10163200A20DA20D831203131F08831603132206A1
:10164200C7392206831203139F0006308316031341
:10165200A200A20B2A2B000083160313AB01AC01DC
:1016620000302C02203003192B02031C392B3A2B99
:101672003C2B7B2B7B2B831203131F15402B1F1933
:10168200432B442B402B452B831603131E08A20029
:10169200831203131E0883160313A3000030A31B37
:1016A200FF30A400A5002208A7072308031103188E
:1016B200013E03195D2BA807240803110318013EFC
:1016C2000319642BA907250803110318013E031906
:1016D2006B2BAA070130AB070318AC0A0030AC072A
:1016E20000302C02203003192B02031C792B7A2B99
:1016F2003C2B7B2B2708A2002808A3002908A40062
:101702002A08A50005300310A50CA40CA30CA20CFA
:10171200FF3E031D842B2308A101A1072208A0017B
:10172200A007932B08000A168A11A8210A128A150B
:101732000A168A1197200A128A150A168A11162386
:101742000A128A15C53083160313A4008630A50039
:101752000A128A1196270A128A15943083160313E5
:10176200A4008730A5000A128A1196270A128A1548
:1017720083160313A20102300A168A1125220A12C5
:101782008A150B3083160313A4008730A5000A12B2
:101792008A1196270A128A150C300A168A113521E7
:1017A2000A128A155D3A0319D72BD82B3A2C8316C5
:1017B2000313A00108300A168A1151230A128A154E
:1017C20083160313A00100300A168A1151230A124C
:1017D2008A15003083160313A3000030A4000230E0
:1017E2000A168A11C6200A128A15FF3083160313BD
:1017F200A300FF30A40004300A168A11C6200A1280
:101802008A15003083160313A3000030A4000630AB
:101812000A168A11C6200A128A1583160313ED01CD
:10182200C8306D02031C162C172C192C2E2C2E2CB2
:10183200A0016D080E3E0A168A1151230A128A155A
:10184200013083160313EB006B08ED07C8306D02FD
:10185200031C2C2C2D2C192C2E2C5D30EB006B082C
:10186200A0000C300A168A1151230A128A153A2C4A
:101872003A2C0A168A116C200A128A150A168A1143
:101882000A200A128A158B17462C0A168A1154222C
:101892000A128A1583160313EB006B08EC006C081E
:1018A200031D542C462C6C080A128A1573200A1246
:1018B2008A15462C462C462C0A128A1112288312AB
:1018C2000313B2002230A8002808AC00692D3308A7
:1018D200253A03196D2C6E2C7A2C3308A800320895
:1018E20084002808831380000130A8002808B2076A
:1018F200692DAD01832C842DA22CA22C692D2D17CC
:10190200A22CA22C2108A9002008A8000130A007BF
:101912000318A10A2908FF00280884000A128A1164
:1019220000260A128A15B300003A0319842D643A7C
:101932000319A22C0D3A0319A22C1C3A0319802C6C
:10194200692D2D1BA52CA62CC12C2C0884008313D9
:101952000008AE00840A0008AF000230A800280880
:10196200AC07AF1FB52CB62CCE2C0330A80028082C
:10197200AD04AE09AF09AE0A0319AF0ACE2CCE2CC4
:101982002C08840083130008AE00840A0008AF000C
:101992000230A8002808AC07CE2CB301B30A3308E2
:1019A200053A031DD52CD62CD82C042D042D330832
:1019B200A80028073A3E840086300318013EFF0043
:1019C2000A128A1100260A128A15A9000A128A111D
:1019D20000260A128A15AA002A082F02031DF32CD8
:1019E20029082E020318F62CF72CF92C042D042DAD
:1019F2000130A8002808B3073308053A031D022D59
:101A0200032DD82C042D2D0803390319092D0A2D75
:101A1200162D2D30A8003208840028088313800078
:101A22000130A8002808B207162D3308A80028089C
:101A3200AB005D2D0A30F8000030F9002B08A80039
:101A420028073A3E840086300318013EFF000A123E
:101A52008A1100260A128A15F0000A128A1100263B
:101A62000A128A15F1002F08F301F3072E08F2017A
:101A7200F2070A168A111C250A128A157108FB013F
:101A8200FB077008FA01FA070A168A1147240A129C
:101A92008A157808303E83120313A9002908B3007F
:101AA2003308A8003208840028088313800001301C
:101AB200A8002808B2075D2DFF30A8002808AB0750
:101AC2002B08FF3A031D662D672D1B2D692D692DED
:101AD2002108A9002008A8000130A0070318A10AC4
:101AE2002908FF00280884000A128A1100260A1217
:101AF2008A15AA002A08B300B308031D812D822D7E
:101B0200682C842D842D3208840083138001892D52
:101B1200080000300A168A1116210A128A15831249
:101B22000313C8004808D0000330C8004808F0007A
:101B320050080A168A11AD200A128A15023E2E3E5C
:101B4200840086300318013E83120313FF000A1239
:101B52008A1100260A128A15C9004908D1000830E4
:101B62000A168A1116210A128A1583120313C80053
:101B72004808D20006300A168A11D0210A128A15A4
:101B8200730883120313CB01CB077208CA01CA0779
:101B920004300A168A11D0210A128A157308831298
:101BA2000313CD01CD077208CC01CC070A128A11AA
:101BB200E7250A128A15831203136D08023A031DE0
:101BC200E32DE42D122ED3010A2E53080A128A1590
:101BD200E3210A128A15710883120313CF01CF077A
:101BE2007008CE01CE074F08B501B5074E08B40103
:101BF200B4075308C8004808B6000A128A156B22B7
:101C02000A128A15013083120313C8004808D30749
:101C12000A2E51085302031C0F2E102EE62DB32E4E
:101C2200B32E6D08033A031D172E182EB32ED401BE
:101C3200AA2E64305202031C1F2E202E312E8B122C
:101C42000A128A11E7250A128A15B730F200863085
:101C5200F3000A168A11CF240A128A15B32EA32E74
:101C62008312031354080A128A15E3210A128A15F1
:101C7200710883120313D601D6077008D501D50760
:101C82004D085602031D472E4C08550203184A2ED2
:101C92004B2E582E5608F401F4075508F301F307AA
:101CA20004300A168A1181200A128A15582E8312CC
:101CB200031356084B02031D602E55084A020318EF
:101CC200632E642E702E5608F401F4075508F301B2
:101CD200F30706300A168A1181200A128A15831226
:101CE20003135608F401F4075508F301F3075208E9
:101CF200C80048070E3E0A168A1181200A128A1568
:101D0200013083120313C8004808D2075208C800E2
:101D12004808F00008300A168A11B4220A128A15FD
:101D2200831203135608B501B5075508B401B40769
:101D32005408C8004808B6000A128A156B220A1213
:101D42008A15A32E013083120313C8004808D40752
:101D5200AA2E51085402031CAF2EB02E1A2EB32EF7
:101D6200B32EB32E080083160313C000B030B600A2
:101D72003608BA00D72F4108253A0319C12EC22EC0
:101D8200CE2E4108B6004008840036088313800036
:101D92000130B6003608C007D72FBB01D72EFA2F65
:101DA200FE2EFE2ED72F3B17FE2EFE2E2F08B7003B
:101DB2002E08B6000130AE070318AF0A37088312A7
:101DC2000313FF00831603133608840083120313E0
:101DD2000A128A1100260A128A1583160313C100F9
:101DE200003A0319FA2F643A0319FE2E0D3A031929
:101DF200FE2E1C3A0319D42ED72F3B1B012F022F84
:101E02001D2F3A08840083130008BC00840A0008CE
:101E1200BD000230B6003608BA07BD1F112F122FBF
:101E22002A2F0330B6003608BB04BC09BD09BC0A20
:101E32000319BD0A2A2F2A2F3A08840083130008A7
:101E4200BC00840A0008BD000230B6003608BA079A
:101E52002A2FC101C10A4108053A031D312F322F31
:101E6200342F682F682F4108B60036073A3E8400A7
:101E720086300318013E83120313FF000A128A11EF
:101E820000260A128A1583160313B700831203135E
:101E92000A128A1100260A128A1583160313B80041
:101EA20038083D02031D572F37083C0203185A2FEA
:101EB2005B2F5D2F682F682F0130B6003608C107EF
:101EC2004108053A031D662F672F342F682F3B0800
:101ED200033903196D2F6E2F7A2F2D30B60040086B
:101EE20084003608831380000130B6003608C0072C
:101EF2007A2F4108B6003608B900CB2F0A30A80065
:101F02000030A9003908B60036073A3E8400863010
:101F12000318013E83120313FF000A128A110026DE
:101F22000A128A1583160313A000831203130A12DE
:101F32008A1100260A128A1583160313A1003D088E
:101F4200A301A3073C08A201A2070A168A11692568
:101F52000A128A15831603132108AB01AB07200866
:101F6200AA01AA070A168A118A240A128A15831656
:101F720003132808303EB7003708C1004108B600F5
:101F8200400884003608831380000130B60036080A
:101F9200C007CB2FFF30B6003608B9073908FF3A21
:101FA200031DD42FD52F7F2FD72FD72F2F08B70060
:101FB2002E08B6000130AE070318AF0A37088312A5
:101FC2000313FF00831603133608840083120313DE
:101FD2000A128A1100260A128A1583160313B80000
:101FE2003808C100C108031DF72FF82FBC2EFA2FA5
:0E1FF200FA2F4008840083138001FF2F08009F
:1020040064008001840A04060319003404060328CA
:102014002730831203138100831603138112811165
:10202400073081040B118B120800343487348B344D
:1020340086342A3487344F34873457348734A93468
:1020440086349A34863483160313E8006808023A07
:10205400031D2D282E28352801300A128A11152037
:102064000A168A113528080083160313E800680845
:10207400023A031D3E283F28462801300A128A11DD
:1020840015200A168A114628080083160313E8004F
:102094006808023A031D4F28502858288B12013033
:1020A4000A128A1115200A168A11582808007E0877
:1020B4008A007F0882000A168A1159200A168A119A
:1020C4008000840A04087D0603190034FF0A0319FA
:1020D400FE0A5D28FF308316031385001F08F039BC
:1020E40001389F00831203131F083F3940389F00B3
:1020F400831603139F17831203131F140800F6009B
:102104007408F5007508F00076080A168A11B422DE
:102114000A168A117308F5007508F000760A0A1683
:102124008A11B4220A168A110800831603130713AE
:102134008717981618128312031398171816831604
:1021440003138C160B1718111930990018138312E6
:1021540003138C120800F200F301B028721CB32898
:10216400B428B9287008F1007108F307B9280310DE
:10217400F00D0310F20CF208031DC128C228B02888
:10218400C3287308C528080083160313A60024086F
:10219400A5002508A00026080A168A1151230A164C
:1021A4008A11831603132308A5002508A000260A14
:1021B4000A168A1151230A168A110800831203137E
:1021C400061000300A168A1106240A168A110130F4
:1021D4000A168A1106240A168A1103308316031379
:1021E400A3009730A200A20BF528A30BF528FA2828
:1021F400080083160313A300A2010029231C03294A
:10220400042909292008A1002108A207092903108B
:10221400A00D0310A30CA308031D112912290029E2
:102224001329220815290800F100640083160317F6
:102234008C181D291E2917291F29710883120317B9
:102244008D003F30F0007008831603178C050C14C2
:1022540003100C1803140030031801308312031701
:102264000C083429080083160313A10064008316A4
:1022740003178C183E293F29382940298316031354
:102284002108831203178D003F3083160313A00027
:102294002008831603178C050C1403100C18031460
:1022A400003003180130831203170C085929080061
:1022B400F4008312031306106E2908300A168A11DB
:1022C400FA210A168A1176290C300A168A11FA2183
:1022D4000A168A11762976297408013A03195F29A6
:1022E400033A03196629762972080A168A11FA2113
:1022F4000A168A110D30F300F30B7E2908008313AC
:10230400603084006E300A168A1102200A168A117F
:1023140083160313EE01EF01831790308400C43059
:102324000A168A1102200A168A11D230FD001030D2
:10233400FE001730FF00C43084000A168A115D20A5
:102344000A168A1183010A128A15942B8312031325
:102354000710871007118711831603130714071832
:10236400B429B829831603138714BB2983160313CE
:1023740087108718BE29C229831603130715C52998
:102384008316031307110719C829CC2983160313CD
:102394008715CF298316031387110800F600F70168
:1023A400F801760A0A168A1116210A168A11F4000F
:1023B400F5017408F7007508F80076080A168A1102
:1023C40016210A168A11F400F5017408F500F401C7
:1023D40077087407F70078080318780A7507F80077
:1023E4007808F301F3077708F201F207F9290800E6
:1023F400F100711CFE29FF29032A83120313061519
:10240400062A831203130611F11C092A0A2A0C2A2C
:1024140086150D2A8611711D102A112A132A0616F3
:10242400142A0612F11D172A182A1A2A86161C2A9B
:1024340086121C2A0D30F000F00B1E2A831203139F
:1024440086148610080083160313A4008312031352
:1024540006103B2A08300A168A1106240A168A1125
:10246400452A0C300A168A1106240A168A11452AAE
:10247400452A831603132408013A03192C2A033A24
:102484000319332A452A8316031322080A168A11CC
:1024940006240A168A110D3083160313A300A30B16
:1024A400512A0800023083160313A2000430A1004D
:1024B400BA30A000A00B5C2AA10B5C2AA20B5C2AF8
:1024C4000000831203138719682A692A6C2A0130D1
:1024D400832A832A07196F2A702A732A0230832ACF
:1024E400832A8718762A772A7A2A0330832A832A2A
:1024F40007187D2A7E2A812A0430832A832A003001
:10250400832A080083160313A600A701A801260A3C
:102514000A168A1135210A168A1183160313A40098
:10252400A5012408A7002508A80026080A168A1170
:1025340035210A168A1183160313A400A501240861
:10254400A500A40127082407A70028080318280ABF
:102554002507A8002808A301A3072708A201A207AA
:10256400B32A0800F200B62A831603178C18BB2A74
:10257400BC2AB62ABD2A7208831203178D0070087C
:102584008C003F30F1007108831603178C05831209
:10259400031303108B1FCF2AD02AD12A03148B13C1
:1025A400831603170C1555308D00AA308D008C143A
:1025B4000C1183120313031CE02AE12AE42A8B176B
:1025C400E42AE42A080083160313A400A6012208BF
:1025D400031DED2A132BA501A50AF72A0310A20D4A
:1025E4000130A3002308A507F72AA21FFA2AFB2A11
:1025F400F02AFD2AFD2A0310A60D22082402031C3A
:10260400042B052B092B2208A4022614092B0310E2
:10261400A20C0130A502031D102B112BFD2A132B34
:10262400132B2608152B0800831603138612061293
:1026340086110611861006108312031386120612E1
:10264400861106118610061002300A168A11062415
:102654000A168A1108300A168A1106240A168A11E3
:1026640000300A168A1106240A168A1100300A1646
:102674008A1106240A168A110C300A168A110624B5
:102684000A168A1100300A168A1106240A168A11BB
:1026940006300A168A1106240A168A1108008316BF
:1026A4000313A200552B831603178C185A2B5B2B8C
:1026B400552B5C2B831603132208831203178D00FA
:1026C400831603132008831203178C003F308316EC
:1026D4000313A1002108831603178C058312031327
:1026E40003108B1F762B772B782B03148B138316F5
:1026F40003170C1555308D00AA308D008C140C1165
:1027040083120313031C872B882B8B2B8B178B2B88
:102714008B2B08007C08F101F1077B08F001F0071E
:102724007A08F301F3077908F201F2070A128A150D
:1027340001200A168A11710883120313A301A30747
:102744007008A201A2077C08F101F1077B08F001DF
:10275400F0077A08F301F3077908F201F2070A1681
:102764008A115B260A168A11710883120313A101C8
:10277400A1077008A001A0072308FC002208FB00A1
:102784002108FA002008F900C72B08008316031358
:102794002C08A101A1072B08A001A0072A08A30166
:1027A400A3072908A201A2070A168A118C270A1670
:1027B4008A11831603132108B001B0072008AF0162
:1027C400AF072C08A101A1072B08A001A0072A0824
:1027D400A301A3072908A201A2070A168A11BF268A
:1027E4000A168A11831603132108AE01AE072008C6
:1027F400AD01AD073008AC002F08AB002E08AA00CD
:102804002D08A900052C080083160313A100211C20
:102814000C2C0D2C112C831203130615142C83126B
:102824000313061183160313A11C192C1A2C1E2C36
:10283400831203138615212C831203138611831626
:102844000313211D262C272C2B2C8312031306166D
:102854002E2C83120313061283160313A11D332C8B
:10286400342C382C8312031386163C2C8312031346
:1028740086123C2C0D3083160313A000A00B402CB1
:102884008312031386148610080079087804031948
:102894004C2C4D2C822CFD01FD0A5C2C01300310C4
:1028A400F80DF90DFF3E031D512C0130FC007C088E
:1028B400FD075C2CF91F5F2C602C502C622C622CC1
:1028C40079087B02031D682C78087A02031C6B2CA0
:1028D4006C2C732C7808FA027908031CFB03FB02A6
:1028E400732C01300310F90CF80CFF3E031D742CFB
:1028F4000130FD02031D7F2C802C622C822C822C43
:102904007B08F901F9077A08F801F807892C08000F
:1029140083160313290828040319912C922CC72C1D
:10292400AD01AD0AA12C01300310A80DA90DFF3E85
:10293400031D962C0130AC002C08AD07A12CA91F57
:10294400A42CA52C952CA72CA72C29082B02031DFD
:10295400AD2C28082A02031CB02CB12CB82C280852
:10296400AA022908031CAB03AB02B82C01300310E4
:10297400A90CA80CFF3E031DB92C0130AD02031DA8
:10298400C42CC52CA72CC72CC72C2B08A901A9071C
:102994002A08A801A807CE2C0800831203130614E2
:1029A4000A2D7308FF00720884000A128A11002697
:1029B4000A168A11F40004300310F40CFF3E031DC0
:1029C400DE2C7408F5007508F60076080A168A11DC
:1029D400FA210A168A110D30F400F40BEF2C730857
:1029E40083120313FF00720884000A128A1100265E
:1029F4000A168A110A168A11FA210A168A110D304A
:102A0400F400F40B032D0130F2070318F30A0A2D26
:102A1400730883120313FF00720884000A128A11D8
:102A240000260A168A110038031D192D1A2DD32CDD
:102A34001B2D0800F601F701710870040319232DFA
:102A4400242D612DF501F50A332D01300310F00D0D
:102A5400F10DFF3E031D282D0130F4007408F50725
:102A6400332DF11F362D372D272D392D392D0130DA
:102A74000310F60DF70DFF3E031D3A2D7108730286
:102A8400031D462D70087202031C492D4A2D522D38
:102A94007008F2027108031CF303F3027614522D3A
:102AA40001300310F10CF00CFF3E031D532D0130D7
:102AB400F502031D5E2D5F2D392D612D612D7708E3
:102AC400F101F1077608F001F007682D080083167C
:102AD4000313A501A601210820040319722D732DE7
:102AE400B02DA701A70A822D01300310A00DA10D5E
:102AF400FF3E031D772D0130A4002408A707822D73
:102B0400A11F852D862D762D882D882D013003104B
:102B1400A50DA60DFF3E031D892D21082302031DCB
:102B2400952D20082202031C982D992DA12D2008F3
:102B3400A2022108031CA303A3022514A12D013022
:102B44000310A10CA00CFF3E031DA22D0130A7020F
:102B5400031DAD2DAE2D882DB02DB02D2608A1015D
:102B6400A1072508A001A007B72D080083160313A9
:102B7400E900FB2D6F08031DC02D082E0130EF0264
:102B840004300A128A1115200A168A11082E082EFA
:102B940000300A168A1135210A168A118316031386
:102BA400E8006808A20008300A168A1135210A16BE
:102BB4008A110A168A11E5220A168A11831603134A
:102BC4006F020318E62DE72D082E0130E80068088F
:102BD400EF0704300A128A1115200A168A11082EEA
:102BE400082E01300A128A1115200A168A11082E9D
:102BF400082E831603136908023A0319F32D013AC8
:102C04000319BC2D073A0319CA2D082E0800831690
:102C14000313E9004A2E6E08031D112E5A2E0130AB
:102C2400EE0208300A128A1115200A168A115A2E49
:102C34005A2E0330831603136E020318222E232EFA
:102C44005A2E0130E8006808EE0708300A128A118B
:102C540015200A168A115A2E5A2E01300A128A1188
:102C640015200A168A115A2E831603136E08E800DB
:102C74006808A00000300A168A1151230A168A1126
:102C840001300A128A1115200A168A115A2E5A2E58
:102C9400831603136908013A0319362E033A0319FC
:102CA4002F2E013A03190D2E073A03191B2E5A2E03
:102CB4000800F601F31F5F2E602E682EF209F30957
:102CC400F20A0319F30AF601F60A682EF11F6B2EB5
:102CD4006C2E722EF009F109F00A0319F10A722E12
:102CE400710870040319772E782EAD2EF501F50ABC
:102CF400872E01300310F00DF10DFF3E031D7C2ED5
:102D04000130F4007408F507872EF11F8A2E8B2EEC
:102D14007B2E8D2E8D2E71087302031D932E700849
:102D24007202031C962E972E9E2E7008F2027108D2
:102D3400031CF303F3029E2E01300310F10CF00C7C
:102D4400FF3E031D9F2E0130F502031DAA2EAB2E5C
:102D54008D2EAD2EAD2E7608031DB12EB72EF209A1
:102D6400F309F20A0319F30AB72E7308F101F10704
:102D74007208F001F007BE2E080083160313A601A3
:102D8400A31FC52EC62ECE2EA209A309A20A03197B
:102D9400A30AA601A60ACE2EA11FD12ED22ED82E6A
:102DA400A009A109A00A0319A10AD82E2108200408
:102DB4000319DD2EDE2E132FA501A50AED2E0130F9
:102DC4000310A00DA10DFF3E031DE22E0130A4004F
:102DD4002408A507ED2EA11FF02EF12EE12EF32ECF
:102DE400F32E21082302031DF92E20082202031CBE
:102DF400FC2EFD2E042F2008A2022108031CA3038D
:102E0400A302042F01300310A10CA00CFF3E031DEC
:102E1400052F0130A502031D102F112FF32E132FA0
:102E2400132F2608031D172F1D2FA209A309A20A79
:102E34000319A30A1D2F2308A101A1072208A00139
:102E4400A007242F080083160313E8007B2F8316A2
:102E54000317420841040319302F312F8B2F0130FF
:102E6400C1020030031CC203C20207300A128A11D5
:102E740015200A168A118B2F8B2F00308316031707
:102E840042020630031941020318492F4A2F8B2F9F
:102E94000130C1070318C20A0030C20707300A1202
:102EA4008A1115200A168A118B2F8B2F01300A12D2
:102EB4008A1115200A168A118B2F831603174208CC
:102EC40083160313A401A40783160317410883166A
:102ED4000313A301A30702300A168A11C6200A1697
:102EE4008A1101300A128A1115200A168A118B2FB1
:102EF4008B2F831603136808013A03195F2F033AD3
:102F04000319582F013A0319292F073A03193F2FA0
:102F14008B2F080083160313A601A11F922F932F52
:102F24009B2FA009A109A00A0319A10AA601A60AB8
:102F34009B2FA31F9E2F9F2FA92FA209A309A20A8B
:102F44000319A30A0130A4002408A606A92FA70187
:102F5400A801210820040319B02FB12FEE2FA501D9
:102F6400A50AC02F01300310A00DA10DFF3E031DC3
:102F7400B52F0130A4002408A507C02FA11FC32F1B
:102F8400C42FB42FC62FC62F01300310A70DA80DD0
:102F9400FF3E031DC72F21082302031DD32F200842
:102FA4002202031CD62FD72FDF2F2008A2022108CC
:102FB400031CA303A3022714DF2F01300310A10C69
:102FC400A00CFF3E031DE02F0130A502031DEB2FD3
:102FD400EC2FC62FEE2FEE2F2608031DF22FF82F0D
:102FE400A709A809A70A0319A80AF82F2808A10104
:0C2FF400A1072708A001A007FF2F08007C
:0E3FF20001300A128A1115200A168A150800DD
:02400E0031FF80
:00000001FF
