:060000000A128A11122809
:10000800FE00030E83120313EA000408EB000A083B
:10001800EC007F08ED000A128A15752D0A168A1160
:100028002B2E83120313CD00383084009030B40097
:100038000408B5001130B60034088400831700089E
:10004800B700B40A35088400831337088000B50A5E
:10005800B60B2028D72A0A168A1182250A128A1175
:10006800831203136F08B4003407D13E840083134E
:100078000008F400840A0008F5000A128A15D22044
:100088000A128A11F32A8B16F32A8B16F32A0A16F8
:100098008A1182250A128A1108300A168A11E72560
:1000A8000A128A1183120313B4003408C900C9085C
:1000B800031D5F2860286A28D330F4008530F500D6
:1000C8000A128A15D2200A128A11F32A00300A1657
:1000D8008A11E7250A128A1183120313B40034081F
:1000E800CA000330B4003408F0004A080A168A111E
:1000F80069250A128A11023E2E3E840085300318B3
:10010800013E83120313FF000A128A1100250A1206
:100118008A11B5003508CE004E08B4003408F00046
:100128008316031350080A168A1169250A128A11C0
:1001380083120313B50035070E3EB6003608CF000C
:10014800D90139294F080A168A1178260A128A1104
:10015800730883120313CC01CC077208CB01CB07B9
:100168000A30F0000030F1004C08F301F3074B08A7
:10017800F201F2070A128A1585200A128A117108FB
:1001880083120313D501D5077008D401D4070A30A8
:10019800F8000030F9004C08FB01FB074B08FA0196
:1001A800FA070A128A1542200A128A11790883125C
:1001B8000313D701D7077808D601D6073D30A0002A
:1001C8008630A1005908013EA20000300318013012
:1001D800A3005508A501A5075408A401A4075708BA
:1001E800A701A7075608A601A60738300A128A15DC
:1001F800D6260A128A11031483120313590D443E9A
:10020800840085300318013EFF000A128A11002578
:100218000A128A11B4003408F2005908B5003507EB
:10022800443E840085300318013EFF000A128A11FB
:1002380000250A128A110A168A1151260A128A11F1
:100248003830F4000030F5000A128A15D2200A125C
:100258008A11831203134F08023EB4003408CF00FA
:100268000130B4003408D90739294E085902031C53
:100278003E293F29A628F32AF32AF32A0A168A11C7
:1002880082250A128A1106300A168A1178260A125D
:100298008A11730883120313D101D1077208D001A0
:1002A800D00704300A168A1178260A128A117308B0
:1002B80083120313D301D3077208D201D20751085E
:1002C8005004031D682969297E29FF305306031D40
:1002D8006F29FF305206031D72297329F32AD33080
:1002E800F4008530F5000A128A15D2200A128A1104
:1002F800F32AF32A0A30F0000030F10083120313C6
:100308005108F301F3075008F201F2070A128A159F
:1003180085200A128A11710883120313D501D507A3
:100328007008D401D4070A30F8000030F9005108E9
:10033800FB01FB075008FA01FA070A128A15422046
:100348000A128A11790883120313D701D70778088C
:10035800D601D6072030A0008630A1005508A30199
:10036800A3075408A201A2075708A501A507560824
:10037800A401A40738300A128A15D6260A128A114F
:100388003830F4000030F5000A128A15D2200A121B
:100398008A11F20102300A168A1151260A128A11AC
:1003A8000A30F0000030F100831203135308F30100
:1003B800F3075208F201F2070A128A1585200A1279
:1003C8008A11710883120313D501D5077008D40167
:1003D800D4070A30F8000030F9005308FB01FB0786
:1003E8005208FA01FA070A128A1542200A128A11DB
:1003F800790883120313D701D7077808D601D607DF
:100408001630A0008630A1005508A301A3075408A0
:10041800A201A2075708A501A5075608A401A40729
:1004280038300A128A15D6260A128A113830F40092
:100438000030F5000A128A15D2200A128A11F32A0E
:10044800F32AF00108300A168A1159270A128A116C
:10045800F00100300A168A1159270A128A11003051
:10046800F3000030F40002300A168A1153250A12EC
:100478008A11FF30F300FF30F40004300A168A11A5
:1004880053250A128A110030F3000030F4000630B8
:100498000A168A1153250A128A1183120313D801E6
:1004A800C8305802031C592A5A2A5C2A712A712A10
:1004B800F00158080E3E0A168A1159270A128A11A5
:1004C800013083120313B4003408D807C830580227
:1004D800031C6F2A702A5C2A712A0A168A1182253F
:1004E8000A128A11DF30F4008530F5000A128A15E5
:1004F800D2200A128A11F32A0A168A1182250A12B0
:100508008A11831603134B0883120313B4000130B6
:100518000310B40DFF3E031D8C2A0310340D123E48
:10052800840085300318013EFF000A128A11002555
:100538000A128A11F4000A128A1100250A128A1175
:10054800F5000A128A15D2200A128A11F32A0A160D
:100558008A1182250A128A11033083120313B40008
:100568003408F0006E080A168A1169250A128A11E1
:100578002E3E840085300318013E83120313FF00CA
:100588000A128A1100250A128A11F4000A128A1125
:1005980000250A128A11F5000A128A15D2200A12B9
:1005A8008A11F32AF32A831203134D08013A031917
:1005B8002F28033A03194728013A03194928073A0B
:1005C80003194B28013A03194229033A0319252A2A
:1005D800013A0319802A0F3A0319AB2AF32A831226
:1005E80003134D08B400340883160313CF00080022
:1005F80083120313E000B22C6F08031D042BBD2CDB
:100608000130EF0201300A128A1115200A128A11EC
:10061800BD2CBD2C0630831203136F020318152B53
:10062800162BBD2C0130DA005A08EF0701300A12E8
:100638008A1115200A128A11BD2CBD2C972C0A1676
:100648008A1182250A128A1100300A168A11E725B2
:100658000A128A1183120313DA005A08E1000330E0
:10066800DA005A08F00061080A168A1169250A1288
:100678008A11023E2E3E840085300318013E831203
:100688000313FF000A128A1100250A128A11DB00DF
:100698005B08E200E401742B64080A128A155D24E1
:1006A8000A128A11710883120313E701E707700819
:1006B800E601E6076708B501B5076608B401B4079F
:1006C8006408DA005A08B6000A128A15E4240A12E5
:1006D8008A11013083120313DA005A08E407742BD5
:1006E80062086402031C792B7A2B502B7B2B023077
:1006F8000A128A1115200A128A11BD2C0A168A11AB
:1007080082250A128A1108300A168A11E7250A1268
:100718008A1183120313DA005A08E30006300A1616
:100728008A1178260A128A11730883120313DD01CD
:10073800DD077208DC01DC0704300A168A11782606
:100748000A128A11730883120313DF01DF07720884
:10075800DE01DE07E5014C2C63086507DA00DB01E2
:10076800DB0D5B08803AFF0080307F02031DBE2B43
:1007780064305A02031CC12BC22BD32B8B120A16CE
:100788008A1182250A128A11B730F4008530F500E3
:100798000A128A15D2200A128A11532C452C831268
:1007A800031365080A128A155D240A128A11710852
:1007B80083120313E701E7077008E601E6075F08FD
:1007C8006702031DE92B5E0866020318EC2BED2B6C
:1007D800FA2B6708F401F4076608F301F3070430FD
:1007E8000A168A1153250A128A11FA2B8312031347
:1007F80067085D02031D022C66085C020318052CBD
:10080800062C122C6708F401F4076608F301F307B5
:1008180006300A168A1153250A128A118312031305
:100828006708F401F4076608F301F3076308DA00C0
:100838005A070E3E0A168A1153250A128A110130E8
:1008480083120313DA005A08E3076308DA005A0828
:10085800F00008300A168A1159270A128A118312E1
:1008680003136708B501B5076608B401B40765083E
:10087800DA005A08B6000A128A15E4240A128A1104
:10088800452C013083120313DA005A08E5074C2C73
:1008980062086502031C512C522CB02B532C0330D8
:1008A8000A128A1115200A128A11BD2C04300A1264
:1008B8008A1115200A128A11BD2C05300A128A11D4
:1008C80015200A128A11BD2C06300A128A11152029
:1008D8000A128A11BD2C02300A168A1178260A12C9
:1008E8008A11730883160313CC01CC077208CB0155
:1008F800CB0707300A128A1115200A128A11BD2C5B
:1009080000300A168A11E7250A128A118312031386
:10091800DA005A08EE0008300A128A1115200A1265
:100928008A11BD2CBD2C831203136F08003A0319DA
:10093800232B013A0319822B033A03195A2C013A43
:100948000319612C073A0319682C013A03196F2C13
:10095800033A0319842CBD2CBD2CBD2C6008013A28
:100968000319972C023A0319002B073A03190E2B87
:10097800BD2C080083160313E500651CC42CC52C88
:10098800C92C831203130715CC2C831203130711E8
:1009980083160313E51CD12CD22CD62C83120313F7
:1009A8000615D92C83120313061183160313651D2C
:1009B800DE2CDF2CE32C831203138614E62C83121F
:1009C8000313861083160313E51DEB2CEC2CF02C77
:1009D800831203130614F42C831203130610F42C49
:1009E8000D3083160313E400E40BF82C8312031371
:0609F800871487100800BF
:100A0000FF1B0A2D83137F1883170008840A03191C
:100A1000FF0A08007F087F398A000408840A031946
:100A2000FF0A820088348634123400346C348634F1
:100A3000B4340034733486341C3402348E34863437
:100A4000383404347A34863430342A348134863469
:100A500090347E34653486342034FD344634863414
:100A60000134EA3485340234F534853403340034F7
:100A700086340434013400340A34003464340034DD
:100A8000E83403341034273401340034013408349A
:100A900002340034023408340034013402340434A3
:100AA0007A340134003480343F34723431343F348A
:100AB000FE3475343E34583463343D3495341D343B
:100AC0003C34C534AE343A34793421343934943436
:100AD000803437349334A7343534563415343434B1
:100AE000003400340034003480343F34F034FF34B8
:100AF000BE34E234A9343E3483347634BE34AE346A
:100B00002B343E343C34C334BD34D23413343D34FE
:100B10007834D334BB344D346F346E346934743428
:100B20006F34723461342F34473472346134763424
:100B3000613400345134753461346E34743420348B
:100B4000533465346E3473346F34723465347334B3
:100B50000034543465346D3470346F34203441348F
:100B60006D346F34733474347234613400344D3402
:100B700065346D346F3472346934613420344334F5
:100B80006834653469346134003449346E3469340E
:100B9000633469346F342034763431342E34353450
:100BA00030342D3400344E3465346E34683475344A
:100BB0006D3420344434613464346F34003454343C
:100BC000753464346F3420344C3469346D3470348B
:100BD0006F34003432342034733465346E347334FB
:100BE0006F347234653473340034333420347334E6
:100BF00065346E3473346F34723465347334003456
:100C000034342034733465346E3473346F34723456
:100C1000653473340034313432342F343034323468
:100C20002F34323430343134363400344D34693476
:100C30006E343D34253464342E3425346434003429
:100C40004D34613478343D34253464342E342534C5
:100C500064340034563465347234203454346F3480
:100C600064346F34733400344D346F346E3469340B
:100C700074346F34723461340034253464343D3458
:100C8000253464342E342534643400343134203433
:100C9000733465346E3473346F34723400344D34CD
:100CA000613478342F344D3469346E3400344C342C
:100CB00069346D347034613472340034703470349B
:100CC0006D343D3425347534003431342034683487
:100CD0006F3472346134003431343034203473343E
:100CE000653467340034333430342034733465343D
:100CF000673400343134303420346D3469346E3428
:100D000000343334303420346D3469346E3400347C
:100D10003134203473346534673400343134203452
:100D20006D3469346E3400344E34003400300A16A9
:100D30008A11E7250A128A1183120313C800480892
:100D4000D0000330C8004808F00050080A168A1185
:100D500069250A128A11023E2E3E8400853003184E
:100D6000013E83120313FF000A128A1100250A12A2
:100D70008A11C9004908D10008300A168A11E725EE
:100D80000A128A1183120313C8004808D2000630E1
:100D90000A168A1178260A128A117308831203131D
:100DA000CB01CB077208CA01CA0704300A168A11A0
:100DB00078260A128A11730883120313CD01CD0716
:100DC0007208CC01CC070A168A1182250A128A11F0
:100DD000831603134F08023A031DEF2EF02E202F27
:100DE00083120313D301182F53080A128A155D24A6
:100DF0000A128A11710883120313CF01CF077008FA
:100E0000CE01CE074F08B501B5074E08B401B407AF
:100E10005308C8004808B6000A128A15E4240A12CA
:100E20008A11013083120313C8004808D307182F12
:100E300051085302031C1D2F1E2FF42EC52FC52F42
:100E4000831603134F08033A031D272F282FC52F9E
:100E500083120313D401BC2F64305202031C312FC0
:100E6000322F432F8B120A168A1182250A128A11F9
:100E7000B730F4008530F5000A128A15D2200A1224
:100E80008A11C52FB52F8312031354080A128A152D
:100E90005D240A128A11710883120313D601D60742
:100EA0007008D501D5074D085602031D592F4C086F
:100EB000550203185C2F5D2F6A2F5608F401F407C2
:100EC0005508F301F30704300A168A1153250A1254
:100ED0008A116A2F8312031356084B02031D722FC7
:100EE00055084A020318752F762F822F5608F401F1
:100EF000F4075508F301F30706300A168A11532543
:100F00000A128A11831203135608F401F4075508D4
:100F1000F301F3075208C80048070E3E0A168A116B
:100F200053250A128A11013083120313C80048089E
:100F3000D2075208C8004808F00008300A168A1183
:100F400059270A128A11831203135608B501B507EF
:100F50005508B401B4075408C8004808B6000A127E
:100F60008A15E4240A128A11B52F01308312031363
:100F7000C8004808D407BC2F51085402031CC12FD5
:100F8000C22F2C2FC52FC52FC52F08008312031386
:100F90008613061386120612831603138617861B02
:100FA000D22FD62F831603130617D92F83160313B8
:100FB0000613061BDC2FE02F831603138616E32F80
:100FC000831603138612861AE62FEA2F831603135D
:100FD0000616ED2F8316031306128113F0309500C9
:100FE0001230831603178900F0308316031396001E
:040FF0008B15080055
:10100C007C08F101F1077B08F001F0077A08F30185
:10101C00F3077908F201F2070A128A15F6220A126E
:10102C008A15710883120313A301A3077008A20188
:10103C00A2077C08F101F1077B08F001F0077A08A0
:10104C00F301F3077908F201F2070A128A15292233
:10105C000A128A15710883120313A101A1077008E3
:10106C00A001A0072308FC002208FB002108FA00BD
:10107C002008F9004128080079087804031947284A
:10108C0048287D28FD01FD0A572801300310F80D72
:10109C00F90DFF3E031D4C280130FC007C08FD07B8
:1010AC005728F91F5A285B284B285D285D2879089A
:1010BC007B02031D632878087A02031C66286728C4
:1010CC006E287808FA027908031CFB03FB026E28D1
:1010DC0001300310F90CF80CFF3E031D6F28013092
:1010EC00FD02031D7A287B285D287D287D287B083E
:1010FC00F901F9077A08F801F80784280800F501C6
:10110C00F6017108700403198C288D28CA28F70180
:10111C00F70A9C2801300310F00DF10DFF3E031D62
:10112C0091280130F4007408F7079C28F11F9F28C0
:10113C00A0289028A228A22801300310F50DF60D46
:10114C00FF3E031DA32871087302031DAF2870080E
:10115C007202031CB228B328BB287008F202710873
:10116C00031CF303F3027514BB2801300310F10CBC
:10117C00F00CFF3E031DBC280130F702031DC728ED
:10118C00C828A228CA28CA287608F101F1077508D0
:10119C00F001F007D12808008312031307140D295E
:1011AC007508FF00740884000A128A1100250A12BF
:1011BC008A15F60004300310F60CFF3E031DE128DF
:1011CC007608F7007708F80078080A168A11A22624
:1011DC000A128A150D30F600F60BF22875088312E8
:1011EC000313FF00740884000A128A1100250A12E6
:1011FC008A150A168A11A2260A128A150D30F600D3
:10120C00F60B06290130F4070318F50A0D297508A9
:10121C0083120313FF00740884000A128A1100253C
:10122C000A128A150038031D1C291D29D6281E29CF
:10123C00080083120313DB0060296E08031D2729A5
:10124C0070290130EE0208300A128A1115200A1298
:10125C008A15702970290330831203136E02031848
:10126C003829392970290130DA005A08EE0708307C
:10127C000A128A1115200A128A1570297029013058
:10128C000A128A1115200A128A1570298312031367
:10129C006E08DA005A08F00000300A168A11592735
:1012AC000A128A1501300A128A1115200A128A159F
:1012BC0070297029831203135B08013A03194C2916
:1012CC00033A03194529013A03192329073A03194B
:1012DC0031297029080083120313DB00BA29831605
:1012EC0003135008031D7B29C7290130D002043099
:1012FC000A128A1115200A128A15C729C72900302B
:10130C000A168A11E7250A128A1583120313DA00CA
:10131C005A08F20008300A168A11E7250A128A15B3
:10132C000A168A11FB260A128A1583160313500219
:10133C000318A129A229C729013083120313DA004B
:10134C005A0883160313D00704300A128A11152089
:10135C000A128A15C729C72901300A128A111520C9
:10136C000A128A15C729C729831203135B08023A8C
:10137C000319B229013A03197529073A031985296A
:10138C00C729080083120313DA00182A83160313E3
:10139C004C084B040319D329D429282A0130CB0239
:1013AC000030031CCC03CC0207300A128A11152022
:1013BC000A128A15282A282A0030831603134C0295
:1013CC00063003194B020318EC29ED29282A0130A9
:1013DC00CB070318CC0A0030CC0707300A128A114D
:1013EC0015200A128A15282A282A01300A128A1175
:1013FC0015200A128A15282A831603134C08F401A7
:10140C00F4074B08F301F30702300A168A1153252F
:10141C000A128A1501300A128A1115200A128A152D
:10142C00282A282A831203135A08013A0319022A7C
:10143C00033A0319FB29013A0319CC29073A03197A
:10144C00E229282A0800F601F31F2D2A2E2A362A13
:10145C00F209F309F20A0319F30AF601F60A362A1D
:10146C00F11F392A3A2A402AF009F109F00A031926
:10147C00F10A402A710870040319452A462A7B2A6E
:10148C00F501F50A552A01300310F00DF10DFF3E60
:10149C00031D4A2A0130F4007408F507552AF11F80
:1014AC00582A592A492A5B2A5B2A71087302031DA0
:1014BC00612A70087202031C642A652A6C2A70085F
:1014CC00F2027108031CF303F3026C2A01300310BF
:1014DC00F10CF00CFF3E031D6D2A0130F502031DCB
:1014EC00782A792A5B2A7B2A7B2A7608031D7F2A95
:1014FC00852AF209F309F20A0319F30A852A7308FB
:10150C00F101F1077208F001F0078C2A0800831230
:10151C0003130714DE2A83160313670883120313BD
:10152C00FF008316031366088400831203130A1248
:10153C008A1100250A128A1583160313E800043059
:10154C000310E80CFF3E031DA62A6808E900690891
:10155C00EA006A080A128A11BE240A128A150D3092
:10156C0083160313E800E80BB92A831603136708E4
:10157C0083120313FF00831603136608840083127F
:10158C0003130A128A1100250A128A150A128A11EB
:10159C00BE240A128A150D3083160313E800E80BDB
:1015AC00D52A013083160313E6070318E70ADE2A4F
:1015BC0083160313670883120313FF0083160313A8
:1015CC0066088400831203130A128A1100250A127A
:1015DC008A150038031DF32AF42A912AF52A0800EB
:1015EC00F601F11FFA2AFB2A032BF009F109F00A84
:1015FC000319F10AF601F60A032BF31F062B072B2E
:10160C00112BF209F309F20A0319F30A0130F40061
:10161C007408F606112BF701F80171087004031910
:10162C00182B192B562BF501F50A282B013003101A
:10163C00F00DF10DFF3E031D1D2B0130F40074085D
:10164C00F507282BF11F2B2B2C2B1C2B2E2B2E2B89
:10165C0001300310F70DF80DFF3E031D2F2B710801
:10166C007302031D3B2B70087202031C3E2B3F2B95
:10167C00472B7008F2027108031CF303F302771472
:10168C00472B01300310F10CF00CFF3E031D482BCF
:10169C000130F502031D532B542B2E2B562B562B9E
:1016AC007608031D5A2B602BF709F809F70A031962
:1016BC00F80A602B7808F101F1077708F001F007C0
:1016CC00672B080083120313E800BD2B83126808F4
:1016DC000A168A11E2240A128A15DC2B83120313D0
:1016EC0068080A128A11FC220A128A15DC2B831252
:1016FC00031368080A168A112E250A128A15DC2B88
:10170C008312031368080A168A112E250A128A15E9
:10171C00DC2B8312031368080A128A1571210A1232
:10172C008A15DC2B8312031368080A168A110C2500
:10173C000A128A15DC2B8312031368080A168A1105
:10174C001D250A128A15DC2B8312031368080A1252
:10175C008A15C8210A128A15DC2B83120313680818
:10176C000A128A151F210A128A15DC2BDC2B831610
:10177C0003134F08003A03196C2B013A0319742B0D
:10178C00033A03197D2B013A0319862B073A0319E7
:10179C008F2B013A0319982B033A0319A12B013A09
:1017AC000319AA2B0F3A0319B32BDC2B0800FA01EF
:1017BC0008300A168A11E7250A128A15F4007408F3
:1017CC00F6007608F4007407F5007508F800003090
:1017DC000A168A11E7250A128A15F4007408F70014
:1017EC000330F4007408F00077080A168A11692592
:1017FC000A128A15023E2E3E840085300318013EE3
:10180C0083120313FF000A128A1100250A128A158B
:10181C0099000730F5007D30F400F40B132CF50B18
:10182C00132C8312031399010730F5007D30F4005B
:10183C00F40B1E2CF50B1E2C552C7A080F3E0A1699
:10184C008A11E7250A128A15F4007408F900790840
:10185C008312031399000730F5007D30F400F40B6C
:10186C00352CF50B352C7A080E3E0A168A11E72515
:10187C000A128A15F4007408F9007908831203130C
:10188C0099000730F5007D30F400F40B4B2CF50B70
:10189C004B2C7A08023EF4007408FA00552C780898
:1018AC007A02031C5A2C5B2C232C5C2C0800F600AF
:1018BC000030FA000030F9000030F8000030F7007A
:1018CC0076084C3E840085300318013E83120313C6
:1018DC00FF000A128A1100250A128A15F200F20D75
:1018EC00F20D1F087206C33972069F000630F20013
:1018FC00F20B7E2C0000FB01FC0100307C0220303E
:10190C0003197B02031C8B2C8C2C8E2CCB2CCB2CFC
:10191C00831203139F14922C9F18952C962C922CA7
:10192C00972C831603131E08F200831203131E0850
:10193C00F3000030F31BFF30F400F5007208F707DA
:10194C00730803110318013E0319AD2CF807740832
:10195C0003110318013E0319B42CF9077508031180
:10196C000318013E0319BB2CFA070130FB070318BF
:10197C00FC0A0030FC0700307C02203003197B028B
:10198C00031CC92CCA2C8E2CCB2C7708F20078089F
:10199C00F3007908F4007A08F50005300310F50C13
:1019AC00F40CF30CF20CFF3E031DD42C7308F10164
:1019BC00F1077208F001F007E32C08003B308400BB
:1019CC00C03083120313B7000408B8000930B90003
:1019DC003708840083130008BA00B70A380884005B
:1019EC003A088000B80AB90BEE2C3508FA01FA0750
:1019FC003408F901F9070A30FB000030FC000A1228
:101A0C008A1506200A128A157C0883120313C70054
:101A1C007B08C6007A08C5007908C4003D30A000D8
:101A2C008630A1000330B7003708F00036080A16DC
:101A3C008A1169250A128A15023E2E3E84008530D1
:101A4C000318013E83120313FF000A128A110025AA
:101A5C000A128A15A200A301A21BA3034708A50121
:101A6C00A5074608A401A4074508A701A707440831
:101A7C00A601A6073B300A128A15D6260A128A1529
:101A8C00031483120313360D443E8400853003186F
:101A9C00013EFF000A128A1100250A128A15B700AE
:101AAC003708F2003608B8003807443E8400853009
:101ABC000318013EFF000A128A1100250A128A152A
:101ACC000A168A1151260A128A153B30F40000308E
:101ADC00F5000A128A15D2200A128A1508008316FC
:101AEC0003138C1E7A2D7B2D8F2D831203138C1ECA
:101AFC00802D812D8F2D1A08413A031D862D872D9F
:101B0C008F2D0A128A15DD230A128A158F2D8F2D1F
:101B1C008F2D8B1E922D932DEC2D0B1D962D972D0D
:101B2C00EC2D02300A168A1178260A128A157308CF
:101B3C0083160313E201E2077208E101E107610871
:101B4C0083120313E90001300310E90DFF3E031D5E
:101B5C00AA2D0310690D023E123E84008530031835
:101B6C00013EFF000A128A1100250A128A158316FB
:101B7C000313DF00831203130A128A1100250A12C1
:101B8C008A1583160313E00060084E06031DD02D42
:101B9C005F084D060319D32DD42DDB2D0130CD0755
:101BAC000318CE0A0030CE07E52D0A128A119626AC
:101BBC000A128A1583160313CD01CE01E52D2730A9
:101BCC008312031381000B11EC2DEC2D8B1DEF2DCB
:101BDC00F02D0E2E0B1CF32DF42D0E2E0A168A1141
:101BEC00CD260A128A1583120313E900690883169D
:101BFC000313E3006308031D042E0B2E63080A1263
:101C0C008A1568230A128A150B2E0B100E2E0E2E17
:101C1C00831203136D08FF006C088A006B088400A4
:101C2C006A0E8300FE0E7E0E09000A128A11C62768
:101C3C000A128A150A168A119B250A128A150A1687
:101C4C008A118A270A128A15C53083160313E600F7
:101C5C008530E7000A128A158D220A128A159430F3
:101C6C0083160313E6008630E7000A128A158D22CC
:101C7C000A128A1583160313E60102300A168A111A
:101C8C002A270A128A150B3083160313E6008630B6
:101C9C00E7000A128A158D220A128A150C300A16D0
:101CAC008A1106260A128A155D3A03195E2E5F2EDA
:101CBC00C72E83160313E40108300A168A11C527B0
:101CCC000A128A1583160313E40100300A168A11CE
:101CDC00C5270A128A15003083160313E70000305B
:101CEC00E80002300A168A11CD250A128A15FF3037
:101CFC0083160313E700FF30E80004300A168A113C
:101D0C00CD250A128A15003083160313E700003024
:101D1C00E80006300A168A11CD250A128A15831698
:101D2C000317A201C8302202031C9D2E9E2EA02E4A
:101D3C00B92EB92E83160313E40183160317220858
:101D4C000E3E0A168A11C5270A128A15013083160F
:101D5C000317A1002108A207C8302202031CB72ECA
:101D6C00B82EA02EB92E5D30A100210883160313C6
:101D7C00E4000C300A168A11C5270A128A15C72EE0
:101D8C00C72E0A168A11B4250A128A150A168A1148
:101D9C00F1240A128A158B17D22E0A128A111228D4
:101DAC0083120313B2002230A8002808AC00DF2FE6
:101DBC003308253A0319E32EE42EF02E3308A8003D
:101DCC00320884002808831380000130A8002808FA
:101DDC00B207DF2FAD01F92EFA2F182F182FDF2F96
:101DEC002D17182F182F2108A9002008A800013042
:101DFC00A0070318A10A2908FF00280884000A126A
:101E0C008A1100250A128A15B300003A0319FA2F19
:101E1C00643A0319182F0D3A0319182F1C3A031999
:101E2C00F62EDF2F2D1B1B2F1C2F372F2C08840079
:101E3C0083130008AE00840A0008AF000230A8002B
:101E4C002808AC07AF1F2B2F2C2F442F0330A800D2
:101E5C002808AD04AE09AF09AE0A0319AF0A442F26
:101E6C00442F2C08840083130008AE00840A000859
:101E7C00AF000230A8002808AC07442FB301B30A06
:101E8C003308053A031D4B2F4C2F4E2F7A2F7A2FE8
:101E9C003308A80028073A3E840085300318013E19
:101EAC00FF000A128A1100250A128A15A9000A12CB
:101EBC008A1100250A128A15AA002A082F02031D6E
:101ECC00692F29082E0203186C2F6D2F6F2F7A2F74
:101EDC007A2F0130A8002808B3073308053A031DF0
:101EEC00782F792F4E2F7A2F2D08033903197F2F36
:101EFC00802F8C2F2D30A8003208840028088313E3
:101F0C0080000130A8002808B2078C2F3308A800E5
:101F1C002808AB00D32F0A30F8000030F9002B084A
:101F2C00A80028073A3E840085300318013EFF00C4
:101F3C000A128A1100250A128A15F0000A128A1157
:101F4C0000250A128A15F1002F08F301F3072E0859
:101F5C00F201F2070A128A1585200A128A157108F5
:101F6C00FB01FB077008FA01FA070A128A154220D6
:101F7C000A128A157808303E83120313A900290827
:101F8C00B3003308A80032088400280883138000AB
:101F9C000130A8002808B207D32FFF30A80028086A
:101FAC00AB072B08FF3A031DDC2FDD2F912FDF2F02
:101FBC00DF2F2108A9002008A8000130A007031872
:101FCC00A10A2908FF00280884000A128A1100259A
:101FDC000A128A15AA002A08B300B308031DF72FAA
:101FEC00F82FDE2EFA2FFA2F32088400831380018B
:041FFC00FF2F0800AB
:1029C40001300A128A1115200A168A1108006400BF
:1029D4008001840A0406031900340406EA2C273013
:1029E40083120313810083160313811281110730AC
:1029F40081040B118B120800343486348B348534F3
:102A04002A3486344F34863457348634A934853492
:102A14009A34853483120313DA005A08023A031DE8
:102A2400142D152D1C2D01300A128A1115200A1699
:102A34008A111C2D080083120313DA005A08023A83
:102A4400031D252D262D2D2D01300A128A11152046
:102A54000A168A112D2D080083120313DA005A086E
:102A6400023A031D362D372D3F2D8B1201300A12E9
:102A74008A1115200A168A113F2D08007E088A0043
:102A84007F0882000A168A1140250A168A118000DE
:102A9400840A04087D0603190034FF0A0319FE0A98
:102AA400442DF6007408F5007508F00076080A163F
:102AB4008A1159270A168A117308F5007508F0005F
:102AC400760A0A168A1159270A168A110800F30091
:102AD400F2016C2D731C6F2D702D752D7008F10093
:102AE4007108F207752D0310F00D0310F30CF308B1
:102AF400031D7D2D7E2D6C2D7F2D7208812D0800E8
:102B040083120313071000300A168A11A2260A162C
:102B14008A1101300A168A11A2260A168A11033074
:102B2400F3009730F200F20B952DF30B952D9A2DAF
:102B340008008316031787118316031307138717D7
:102B44009816181283120313981718168316031372
:102B54008C160B17181119309900181383120313CC
:102B64008C120800FF308316031385001F30831670
:102B740003178800831603139F121F16831203136F
:102B84001F083F3940389F00831603139F17831291
:102B940003131F14080083160313EA006808E900EE
:102BA4006908E4006A080A168A11C5270A168A11F8
:102BB400831603136708E9006908E4006A0A0A1621
:102BC4008A11C5270A168A110800F10064008316C9
:102BD40003178C18EE2DEF2DE82DF02D71088312BC
:102BE40003178D003F30F0007008831603178C051F
:102BF4000C1403100C180314003003180130831252
:102C040003170C08052E080083160313E50064005F
:102C1400831603178C180F2E102E092E112E8316CF
:102C240003136508831203178D003F3083160313C3
:102C3400E4006408831603178C050C1403100C18A5
:102C44000314003003180130831203170C082A2ED2
:102C54000800EE01EF018313A0308400D1300A167E
:102C64008A11E9240A168A11831790308400A1304E
:102C74000A168A11E9240A168A118313DF30FD002B
:102C84001430FE00FE30FF00D13084000A168A1191
:102C940044250A168A1183010A128A151B2EF40090
:102CA400831203130710652E08300A168A11A22610
:102CB4000A168A116D2E0C300A168A11A2260A16DB
:102CC4008A116D2E6D2E7408013A0319562E033A9B
:102CD40003195D2E6D2E72080A168A11A2260A1691
:102CE4008A110D30F300F30B752E0800F600F7017E
:102CF400F801760A0A168A11E7250A168A11F400E1
:102D0400F5017408F7007508F80076080A168A11A8
:102D1400E7250A168A11F400F5017408F500F40198
:102D240077087407F70078080318780A7507F8001D
:102D34007808F301F3077708F201F207A12E0800DF
:102D4400F100711CA62EA72EAB2E831203130715B8
:102D5400AE2E831203130711F11CB12EB22EB42E22
:102D64000615B52E0611711DB82EB92EBB2E86146C
:102D7400BC2E8610F11DBF2EC02EC22E0614C42EEA
:102D84000610C42E0D30F000F00BC62E8312031370
:102D94008714871008000230F2000430F100BA30C2
:102DA400F000F00BD32EF10BD32EF20BD32E000038
:102DB40083120313061ADF2EE02EE32E0130FA2EBF
:102DC400FA2E861AE62EE72EEA2E0230FA2EFA2E74
:102DD400061BED2EEE2EF12E0330FA2EFA2E861B54
:102DE400F42EF52EF82E0430FA2EFA2E0030FA2E98
:102DF4000800F400F6017208031D012F272FF501C6
:102E0400F50A0B2F0310F20D0130F3007308F507D8
:102E14000B2FF21F0E2F0F2F042F112F112F031022
:102E2400F60D72087402031C182F192F1D2F720837
:102E3400F40276141D2F0310F20C0130F502031D69
:102E4400242F252F112F272F272F7608292F08000D
:102E540083160313E800831203130710402F08306E
:102E64000A128A11BE240A168A114A2F0C300A1239
:102E74008A11BE240A168A114A2F4A2F8316031375
:102E84006808013A0319312F033A0319382F4A2FDE
:102E94008316031366080A128A11BE240A168A11BD
:102EA4000D3083160313E700E70B562F0800F200DA
:102EB4005B2F831603178C18602F612F5B2F622FF3
:102EC4007208831203178D0070088C003F30F100E4
:102ED4007108831603178C058312031303108B1FC9
:102EE400742F752F762F03148B13831603170C1569
:102EF40055308D00AA308D008C140C1183120313ED
:102F0400031C852F862F892F8B17892F892F080063
:102F14008316031306108610061107118710071075
:102F24008312031306108610061107118710071069
:102F340002300A128A11BE240A168A1108300A12B3
:102F44008A11BE240A168A1100300A128A11BE247C
:102F54000A168A1100300A128A11BE240A168A112E
:102F64000C300A128A11BE240A168A1100300A1281
:102F74008A11BE240A168A1106300A128A11BE2446
:102F84000A168A11080083160313E600C92F831654
:102F940003178C18CE2FCF2FC92FD02F83160313CE
:102FA4006608831203178D008316031364088312C3
:102FB40003178C003F3083160313E500650883165E
:102FC40003178C058312031303108B1FEA2FEB2FB7
:102FD400EC2F03148B13831603170C1555308D0037
:102FE400AA308D008C140C1183120313031CFB2FC5
:0C2FF400FC2FFF2F8B17FF2FFF2F080072
:02400E00E1ECE3
:00000001FF
